:10000000FDC0000021C100000C94EC1D0C94ED1DFE
:100010001BC1000019C1000017C1000015C100007C
:1000200013C1000011C100000FC100000DC100008C
:100030000BC1000009C1000007C1000005C100009C
:1000400003C1000001C10000FFC00000FDC00000AE
:100050000C947323F9C000000C94D625F5C0000061
:10006000F3C00000F1C00000EFC00000EDC00000D0
:100070000C94F729E9C00000E7C00000E5C00000CB
:10008000E3C00000E1C00000DFC00000DDC00000F0
:10009000DBC00000D9C00000D7C00000D5C0000000
:1000A000D3C00000D1C00000CFC00000CDC0000010
:1000B000CBC00000C9C00000C7C00000C5C0000020
:1000C000C3C00000C1C00000BFC00000BDC0000030
:1000D000BBC00000B9C00000B7C00000B5C0000040
:1000E000B3C00000B1C00000AFC00000ADC0000050
:1000F000ABC00000A9C00000A7C00000A5C0000060
:10010000A3C00000A1C000009FC000009DC000006F
:100110009BC0000099C0000097C0000095C000007F
:1001200093C0000091C000008FC000008DC000008F
:100130008BC0000089C0000087C0000085C000009F
:1001400083C0000081C000007FC000007DC00000AF
:100150007BC0000079C0000077C0000075C00000BF
:1001600073C0000071C000006FC000006DC00000CF
:100170006BC0000069C0000067C0000065C00000DF
:1001800063C0000061C000000C944E285DC00000F8
:100190005BC0000059C0000057C0000055C00000FF
:1001A00053C0000051C000004FC000004DC000000F
:1001B0004BC0000049C0000047C0000045C000001F
:1001C00043C0000041C000003FC000003DC000002F
:1001D0003BC0000039C0000037C000000C94262945
:1001E0000C94F22731C000002FC000002DC0000089
:1001F0002BC0000029C0000027C0000011241FBE32
:10020000CFEFCDBFDFE3DEBF00E00CBF18BE19BEED
:100210001ABE1BBE10E2A0E0B0E2E0E9F5E500E0A6
:100220000BBF02C007900D92A439B107D9F71BBECE
:100230002BE3A4E9B0E201C01D92AC38B207E1F7AC
:100240000E94EE1D0C94C62ADBCE8F92AF92BF9215
:10025000CF92DF92EF920F938AE390E29F938F9376
:1002600086E0882E96E3A92EB12C2EE0C22E21E244
:10027000D22EE12C01E020E041E060E08EE398E046
:100280000E94F8210F900F900F91EF90DF90CF9088
:10029000BF90AF908F90089508955BD180E20E9447
:1002A000931F0E94F71D0C94F71C0895089508955C
:1002B000089508950895089508950895109294203A
:1002C0001092952008950895E0910E214091942078
:1002D00050919520E0FF15C04F3D83E0580709F489
:1002E00070C04B3E81E0580709F46BC0453F81E088
:1002F000580709F46FC04130510509F46BC0E09113
:100300000E21E1FF14C09A01ADECBCEC0E94AE2AB4
:10031000929582958F7089279F70892764E1689FE5
:100320009001699F300D112442175307C1F1E2FF7C
:1003300019C09A0136952795A3E1B3E80E94AE2A29
:100340000024880F991F001C880F991F001C892FFB
:10035000902D6AEF689F9001699F300D112442171C
:10036000530739F04F5F5F4F40939420509395208F
:10037000089587E00E94AE1F809316219093172165
:1003800061E084E20E947C24409194205091952069
:100390004F5F5F4F4093942050939520089585E0E0
:1003A0000E94AE1F809314219093152161E083E297
:1003B0000E947C24E0910E21409194205091952040
:1003C000B6CF87E691E20E94B71D409194205091EC
:1003D00095208CCF66E071E287E691E20E94C31D12
:1003E000882339F0E0910E2140919420509195207E
:1003F00088CF2091062130910721322723273227E9
:10040000ADECBCEC0E94AE2AFC01F695E795F695A2
:10041000E795F695E795E0930421F0930521409147
:10042000082140930C212091092130910A21322783
:10043000232732270E94AE2A969587959695879511
:1004400096958795809302219093032190910B219B
:1004500090930D2180931021E0931121409312215C
:100460009093132161E082E20E947C24BBCF089527
:100470000895089508950895089590EE980F963080
:1004800040F490E08097FC01E05DFF4D208126174D
:1004900011F080E00895880F991FFC01E45FFF4D83
:1004A0000190F081E02D199581E0089590EE980F6C
:1004B000963048F4E82FF0E0B097DF01A05DBF4D23
:1004C0009C91961711F080E00895EE0FFF1FDF0159
:1004D000AC5DBF4D8D919C9182179307A1F7E050C1
:1004E000F04E0190F081E02DCA011994FC01808149
:1004F00080930E2181E00895FC01808180930F217B
:1005000081E00895FC0180818093102181E00895AD
:10051000FC0180819181809314219093152181E0C9
:100520000895FC0180819181809316219093172179
:1005300081E008950895FC018081918180931821C4
:100540009093192181E008950895089508950895DC
:1005500008950F9320E040E060E080E496E00E9480
:10056000EC1E20E040E061E080E496E00E94EC1E9A
:1005700000E021E040E061E080E496E00E94191F85
:1005800022E040E061E080E496E00E94191F21E053
:1005900040E067E080E696E00E94011F21E040E035
:1005A00066E080E696E00E94011F21E040E063E003
:1005B00080E696E00E94011F21E040E064E080E6D2
:1005C00096E00E94011FE0E6F6E080E8868380E482
:1005D000868388E0858380E185830F91089521E0FB
:1005E00048E260E080E696E00E94011F20E040E0E3
:1005F00061E080E696E00E94011FE0E6F6E082E01E
:1006000086832AE62A95F1F700C091E095832AE6D1
:100610002A95F1F700C0878325E12A95F1F70000BC
:1006200000000000000000000000000000000000CA
:1006300000000000000000000000000000000000BA
:10064000878325E12A95F1F70000000000000000F3
:10065000000000000000000000000000000000009A
:1006600000000000000000000000878325E12A95BB
:10067000F1F7000000000000000000000000000092
:10068000000000000000000000000000000000006A
:1006900000000000878325E12A95F1F700000000A3
:1006A000000000000000000000000000000000004A
:1006B0000000000000000000000000000000878330
:1006C00025E12A95F1F7000000000000000000007D
:1006D000000000000000000000000000000000001A
:1006E0000000000000000000878325E12A95F1F753
:1006F00000000000000000000000000000000000FA
:1007000000000000000000000000000000000000E9
:100710000000878325E12A95F1F700000000000022
:1007200000000000000000000000000000000000C9
:10073000000000000000000000000000878325E1A9
:100740002A95F1F700000000000000000000000002
:100750000000000000000000000000000000000099
:10076000000000000000878325E12A95F1F70000D2
:100770000000000000000000000000000000000079
:100780000000000000000000000000000000000069
:10079000878325E12A95F1F70000000000000000A2
:1007A0000000000000000000000000000000000049
:1007B00000000000000000000000878325E12A956A
:1007C000F1F7000000000000000000000000000041
:1007D0000000000000000000000000000000000019
:1007E00000000000878325E12A95F1F70000000052
:1007F00000000000000000000000000000000000F9
:1008000000000000000000000000000000008783DE
:1008100025E12A95F1F7000000000000000000002B
:1008200000000000000000000000000000000000C8
:100830000000000000000000878325E12A95F1F701
:1008400000000000000000000000000000000000A8
:100850000000000000000000000000000000000098
:100860000000878325E12A95F1F7000000000000D1
:100870000000000000000000000000000000000078
:10088000000000000000000000000000878325E158
:100890002A95F1F7000000000000000000000000B1
:1008A0000000000000000000000000000000000048
:1008B000000000000000878325E12A95F1F7000081
:1008C0000000000000000000000000000000000028
:1008D0000000000000000000000000000000000018
:1008E000878325E12A95F1F7000000000000000051
:1008F00000000000000000000000000000000000F8
:1009000000000000000000000000878325E12A9518
:10091000F1F70000000000000000000000000000EF
:1009200000000000000000000000000000000000C7
:1009300000000000878325E12A95F1F70000000000
:1009400000000000000000000000000000000000A7
:10095000000000000000000000000000000087838D
:1009600025E12A95F1F700000000000000000000DA
:100970000000000000000000000000000000000077
:100980000000000000000000878325E12A95F1F7B0
:100990000000000000000000000000000000000057
:1009A0000000000000000000000000000000000047
:1009B0000000878325E12A95F1F700000000000080
:1009C0000000000000000000000000000000000027
:1009D000000000000000000000000000878325E107
:1009E0002A95F1F700000000000000000000000060
:1009F00000000000000000000000000000000000F7
:100A0000000000000000878325E12A95F1F700002F
:100A100000000000000000000000000000000000D6
:100A200000000000000000000000000000000000C6
:100A3000878325E12A95F1F70000000000000000FF
:100A400000000000000000000000000000000000A6
:100A500000000000000000000000878325E12A95C7
:100A6000F1F700000000000000000000000000009E
:100A70000000000000000000000000000000000076
:100A800000000000878325E12A95F1F700000000AF
:100A90000000000000000000000000000000000056
:100AA000000000000000000000000000000087833C
:100AB00025E12A95F1F70000000000000000000089
:100AC0000000000000000000000000000000000026
:100AD0000000000000000000878325E12A95F1F75F
:100AE0000000000000000000000000000000000006
:100AF00000000000000000000000000000000000F6
:100B00000000878325E12A95F1F70000000000002E
:100B100000000000000000000000000000000000D5
:100B2000000000000000000000000000878325E1B5
:100B30002A95F1F70000000000000000000000000E
:100B400000000000000000000000000000000000A5
:100B500000000000000023E0268325E12A95F1F73C
:100B60000000000000000000000000000000000085
:100B70000000000000000000000000000000000075
:100B80000000858385E18A95F1F70000958308953B
:100B9000FC0120E22A95F1F791E09093660635E199
:100BA0003A95F1F7000082E08093660625E12A95E8
:100BB000F1F700000000000000000000000000004D
:100BC0000000000000000000000000000000000025
:100BD00000000000208180936606822F880F26FF88
:100BE00001C0BEC59093660635E13A95F1F7000065
:100BF00000000000000000000000000000000000F5
:100C000000000000000000000000000000000000E4
:100C100092E09093650625E12A95F1F70000000027
:100C200000000000000000000000000000000000C4
:100C30000000000000000000000000000000909391
:100C4000660691E086FD01C040C59093650635E1DA
:100C50003A95F1F7000000000000000000000000DD
:100C60000000000000000000000000000000000084
:100C700000000000000092E09093650625E12A95AF
:100C8000F1F700000000000000000000000000007C
:100C90000000000000000000000000000000000054
:100CA000000000009093660691E085FD01C01DC51F
:100CB0009093650635E13A95F1F7000000000000D9
:100CC0000000000000000000000000000000000024
:100CD00000000000000000000000000092E090937F
:100CE000650625E12A95F1F70000000000000000EC
:100CF00000000000000000000000000000000000F4
:100D0000000000000000000000009093660691E0E3
:100D100084FFE8C49093650635E13A95F1F7000049
:100D200000000000000000000000000000000000C3
:100D300000000000000000000000000000000000B3
:100D400092E09093650625E12A95F1F700000000F6
:100D50000000000000000000000000000000000093
:100D60000000000000000000000000000000909360
:100D7000660691E083FFB3C49093650635E13A952A
:100D8000F1F700000000000000000000000000007B
:100D90000000000000000000000000000000000053
:100DA0000000000092E09093650625E12A95F1F796
:100DB0000000000000000000000000000000000033
:100DC0000000000000000000000000000000000023
:100DD00000009093660691E082FF7EC490936506C2
:100DE00035E13A95F1F70000000000000000000036
:100DF00000000000000000000000000000000000F3
:100E0000000000000000000092E09093650625E1DC
:100E10002A95F1F70000000000000000000000002B
:100E200000000000000000000000000000000000C2
:100E30000000000000009093660681FF49C481E035
:100E40008093650635E13A95F1F700000000000057
:100E50000000000000000000000000000000000092
:100E600000000000000000000000000082E080930D
:100E7000650695E19A95F1F700000000000000007A
:100E80000000000000000000000000000000000062
:100E9000000000000000000000008093660691E062
:100EA0009093660625E12A95F1F700000000000006
:100EB0000000000000000000000000000000000032
:100EC00000000000000000000000000080936506A4
:100ED00035E13A95F1F70000000000000000000045
:100EE0000000000000000000000000000000000002
:100EF00000000000000000008093660690936506E5
:100F000025E12A95F1F70000000000000000000034
:100F100000000000000000000000000000000000D1
:100F200000000000000000008093650635E13A955E
:100F3000F1F70000000000000000000000000000C9
:100F400000000000000000000000000000000000A1
:100F5000000000002091680620FD28C480936606EA
:100F6000818187FD20C49093660685E18A95F1F71B
:100F70000000000000000000000000000000000071
:100F80000000000000000000000000000000000061
:100F9000000082E08093650695E19A95F1F70000E4
:100FA0000000000000000000000000000000000041
:100FB0000000000000000000000000000000000031
:100FC00080936606818186FD93C381E080936606E7
:100FD00025E12A95F1F70000000000000000000064
:100FE0000000000000000000000000000000000001
:100FF000000000000000000082E08093650635E1FB
:101000003A95F1F700000000000000000000000029
:1010100000000000000000000000000000000000D0
:1010200000000000000080936606818185FF78C380
:1010300081E08093650685E18A95F1F70000000064
:1010400000000000000000000000000000000000A0
:10105000000000000000000000000000000082E02E
:101060008093650695E19A95F1F700000000000075
:101070000000000000000000000000000000000070
:1010800000000000000000000000000080936606E1
:10109000818184FF41C381E08093650625E12A9523
:1010A000F1F7000000000000000000000000000058
:1010B0000000000000000000000000000000000030
:1010C0000000000082E08093650635E13A95F1F773
:1010D0000000000000000000000000000000000010
:1010E0000000000000000000000000000000000000
:1010F000000080936606818183FF0AC381E08093AC
:10110000650685E18A95F1F7000000000000000007
:1011100000000000000000000000000000000000CF
:101120000000000000000000000082E080936506DF
:1011300095E19A95F1F70000000000000000000022
:10114000000000000000000000000000000000009F
:10115000000000000000000080936606818182FF8D
:10116000D3C281E08093650625E12A95F1F700005E
:10117000000000000000000000000000000000006F
:10118000000000000000000000000000000000005F
:1011900082E08093650635E13A95F1F700000000A2
:1011A000000000000000000000000000000000003F
:1011B000000000000000000000000000000080931C
:1011C0006606818181FF9CC281E08093650685E18E
:1011D0008A95F1F700000000000000000000000008
:1011E00000000000000000000000000000000000FF
:1011F00000000000000082E08093650695E19A956A
:10120000F1F70000000000000000000000000000F6
:1012100000000000000000000000000000000000CE
:101220000000000080936606818180FF65C281E036
:101230008093650625E12A95F1F700000000000083
:10124000000000000000000000000000000000009E
:1012500000000000000000000000000092E09093F9
:10126000650635E13A95F1F7000000000000000046
:10127000000000000000000000000000000000006E
:10128000000000000000000000009093660631E0BE
:101290003093650685E18A95F1F7000000000000B3
:1012A000000000000000000000000000000000003E
:1012B00000000000000000000000000090936506A0
:1012C00025E12A95F1F70000000000000000000071
:1012D000000000000000000000000000000000000E
:1012E000000000000000000020916806822F81703D
:1012F00020FD80C290936606928197FD78C230935C
:10130000660625E12A95F1F70000000000000000C4
:1013100000000000000000000000000000000000CD
:101320000000000000000000000092E090936506BD
:1013300035E13A95F1F700000000000000000000E0
:10134000000000000000000000000000000000009D
:10135000000000000000000090936606928196FF56
:10136000E7C191E09093650695E19A95F1F7000049
:10137000000000000000000000000000000000006D
:10138000000000000000000000000000000000005D
:1013900092E09093650625E12A95F1F700000000A0
:1013A000000000000000000000000000000000003D
:1013B000000000000000000000000000000090930A
:1013C0006606928195FFB0C191E09093650635E184
:1013D0003A95F1F700000000000000000000000056
:1013E00000000000000000000000000000000000FD
:1013F00000000000000092E09093650625E12A9528
:10140000F1F70000000000000000000000000000F4
:1014100000000000000000000000000000000000CC
:101420000000000090936606928194FF95C191E0C0
:101430009093650635E13A95F1F700000000000051
:10144000000000000000000000000000000000009C
:1014500000000000000000000000000092E09093F7
:10146000650625E12A95F1F7000000000000000064
:10147000000000000000000000000000000000006C
:1014800000000000000000000000909366069281BA
:1014900093FF5EC191E09093650635E13A95F1F7CF
:1014A000000000000000000000000000000000003C
:1014B000000000000000000000000000000000002C
:1014C000000092E09093650625E12A95F1F700006F
:1014D000000000000000000000000000000000000C
:1014E00000000000000000000000000000000000FC
:1014F00090936606928192FF27C191E090936506D2
:1015000035E13A95F1F7000000000000000000000E
:1015100000000000000000000000000000000000CB
:10152000000000000000000092E09093650625E1B5
:101530002A95F1F700000000000000000000000004
:10154000000000000000000000000000000000009B
:1015500000000000000090936606928191FFF0C0A9
:1015600091E09093650635E13A95F1F700000000AF
:10157000000000000000000000000000000000006B
:10158000000000000000000000000000000092E0E9
:101590009093650625E12A95F1F700000000000010
:1015A000000000000000000000000000000000003B
:1015B000000000000000000000000000909366069C
:1015C000928190FFB9C091E09093650635E13A951C
:1015D000F1F7000000000000000000000000000023
:1015E00000000000000000000000000000000000FB
:1015F0000000000092E09093650625E12A95F1F73E
:1016000000000000000000000000000000000000DA
:1016100000000000000000000000000000000000CA
:1016200000009093660621E02093650635E13A9527
:10163000F1F70000000000000000000000000000C2
:10164000000000000000000000000000000000009A
:10165000000000009093650635E13A95F1F700002F
:10166000000000000000000000000000000000007A
:10167000000000000000000000000000000000006A
:101680003091680630FD6FC083E08093660635E1D7
:101690003A95F1F700000000000000000000000093
:1016A000000000000000000000000000000000003A
:1016B0000000000000009093650685E18A95F1F72F
:1016C00000002093650681E0089590936606BFCAE6
:1016D00081E080936606B6CB9093660681CB9093AB
:1016E00066064CCB9093660617CB90936606E2CACB
:1016F00081E0809365066CCC81E0809366069ACD8C
:1017000081E08093660663CD81E0809366062CCDF0
:1017100081E080936606F5CC81E080936606BECCBE
:1017200081E08093660687CC91E0909366064FCE69
:1017300091E09093660618CE91E09093660646CFAE
:1017400091E0909366060FCF91E090936606D8CE15
:1017500091E090936606A1CE91E0909366066ACEE2
:101760009093650641CA33E03093660635E13A95B9
:10177000F1F7000000000000000000000000000081
:101780000000000000000000000000000000000059
:10179000000000009093650695E19A95F1F700002E
:1017A00020936506089590936506DFCB23E0209390
:1017B000660625E12A95F1F7000000000000000010
:1017C0000000000000000000000000000000000019
:1017D000000000000000000000008093650635E175
:1017E0003A95F1F700009093650680E008953093F4
:1017F000650687CD83E08093660685E18A95F1F7DB
:1018000000000000000000000000000000000000D8
:1018100000000000000000000000000000000000C8
:1018200000009093650695E19A95F1F700003093DA
:10183000650680E008950F931F93CF93DF93EC012B
:10184000613230F080E0DF91CF911F910F910895C8
:1018500020E22A95F1F721E02093660635E13A95DA
:10186000F1F7000092E09093660645E14A95F1F7A2
:101870000000000000000000000000000000000068
:101880000000000000000000000000000000000058
:101890000000888190936606982F990F86FF01C0FB
:1018A000D7C72093660685E18A95F1F7000000000E
:1018B0000000000000000000000000000000000028
:1018C000000000000000000000000000000082E0B6
:1018D0008093650625E12A95F1F7000000000000DD
:1018E00000000000000000000000000000000000F8
:1018F0000000000000000000000000008093660669
:10190000592F507481E096FF01C027C78093660667
:1019100035E13A95F1F700000000000000000000FA
:1019200000000000000000000000000000000000B7
:10193000000000000000000082E08093650645E1A1
:101940004A95F1F7000000000000000000000000D0
:101950000000000000000000000000000000000087
:1019600000000000000080936606792F707281E00D
:1019700095FD01C0FBC68093650685E18A95F1F768
:101980000000000000000000000000000000000057
:101990000000000000000000000000000000000047
:1019A000000082E08093650625E12A95F1F70000AA
:1019B0000000000000000000000000000000000027
:1019C0000000000000000000000000000000000017
:1019D00080936606E92FE07181E094FD01C0C3C6E3
:1019E0008093650635E13A95F1F7000000000000AC
:1019F00000000000000000000000000000000000E7
:101A000000000000000000000000000082E0809361
:101A1000650645E14A95F1F700000000000000006E
:101A200000000000000000000000000000000000B6
:101A30000000000000000000000080936606F92FFF
:101A4000F87081E093FD01C09AC68093650685E138
:101A50008A95F1F70000000000000000000000007F
:101A60000000000000000000000000000000000076
:101A700000000000000082E08093650625E12A95C1
:101A8000F1F700000000000000000000000000006E
:101A90000000000000000000000000000000000046
:101AA0000000000080936606A92FA47081E092FDDB
:101AB00001C062C68093650635E13A95F1F70000F2
:101AC0000000000000000000000000000000000016
:101AD0000000000000000000000000000000000006
:101AE00082E08093650645E14A95F1F70000000029
:101AF00000000000000000000000000000000000E6
:101B000000000000000000000000000000008093C2
:101B10006606B92FB27081E091FD01C02AC680939C
:101B2000650685E18A95F1F70000000000000000DD
:101B300000000000000000000000000000000000A5
:101B40000000000000000000000022E02093650675
:101B500035E13A95F1F700000000000000000000B8
:101B60000000000000000000000000000000000075
:101B700000000000000000002093660631E0309372
:101B8000660645E14A95F1F70000000000000000FC
:101B90000000000000000000000000000000000045
:101BA000000000000000000000002093650685E1B1
:101BB0008A95F1F70000000000000000000000001E
:101BC0000000000000000000000000000000000015
:101BD000000000000000209366063093650645E192
:101BE0004A95F1F70000000000000000000000002E
:101BF00000000000000000000000000000000000E5
:101C00000000000000002093650685E18A95F1F749
:101C100000000000000000000000000000000000C4
:101C200000000000000000000000000000000000B4
:101C3000000040916806842F817040FF01C020C6DB
:101C400020936606298127FF01C017C630936606D8
:101C500035E13A95F1F700000000000000000000B7
:101C60000000000000000000000000000000000074
:101C7000000000000000000022E02093650645E11E
:101C80004A95F1F70000000000000000000000008D
:101C90000000000000000000000000000000000044
:101CA00000000000000020936606298126FD01C087
:101CB00081C521E02093650625E12A95F1F7000012
:101CC0000000000000000000000000000000000014
:101CD0000000000000000000000000000000000004
:101CE00022E02093650635E13A95F1F70000000007
:101CF00000000000000000000000000000000000E4
:101D00000000000000000000000000000000209320
:101D10006606298125FD01C049C521E0209365069D
:101D200045E14A95F1F700000000000000000000C6
:101D300000000000000000000000000000000000A3
:101D4000000000000000000022E02093650635E15D
:101D50003A95F1F7000000000000000000000000CC
:101D60000000000000000000000000000000000073
:101D700000000000000020936606298124FD01C0B8
:101D800011C521E02093650645E14A95F1F7000071
:101D90000000000000000000000000000000000043
:101DA0000000000000000000000000000000000033
:101DB00022E02093650635E13A95F1F70000000036
:101DC0000000000000000000000000000000000013
:101DD0000000000000000000000000000000209350
:101DE0006606298123FFDAC421E02093650645E1D8
:101DF0004A95F1F70000000000000000000000001C
:101E000000000000000000000000000000000000D2
:101E100000000000000022E02093650635E13A95BD
:101E2000F1F70000000000000000000000000000CA
:101E300000000000000000000000000000000000A2
:101E40000000000020936606298122FFA3C421E040
:101E50002093650645E14A95F1F700000000000077
:101E60000000000000000000000000000000000072
:101E700000000000000000000000000022E02093AD
:101E8000650635E13A95F1F700000000000000001A
:101E90000000000000000000000000000000000042
:101EA0000000000000000000000020936606298169
:101EB00021FF6CC421E02093650645E14A95F1F7C6
:101EC0000000000000000000000000000000000012
:101ED0000000000000000000000000000000000002
:101EE000000022E02093650635E13A95F1F7000005
:101EF00000000000000000000000000000000000E2
:101F000000000000000000000000000000000000D1
:101F100020936606298120FF35C421E020936506C1
:101F200045E14A95F1F700000000000000000000C4
:101F300000000000000000000000000000000000A1
:101F4000000000000000000022E02093650635E15B
:101F50003A95F1F7000000000000000000000000CA
:101F60000000000000000000000000000000000071
:101F70000000000000002093660631E03093650603
:101F800045E14A95F1F70000000000000000000064
:101F90000000000000000000000000000000000041
:101FA00000000000000000002093650645E14A950E
:101FB000F1F7000000000000000000000000000039
:101FC0000000000000000000000000000000000011
:101FD000000000004091680640FD16C4209366068C
:101FE0003093650645E14A95F1F7000000000000D6
:101FF00000000000000000000000000000000000E1
:1020000000000000000000000000000020936506B2
:1020100085E18A95F1F700003093660645E14A951F
:10202000F1F700002093660697FD4CC430936606D6
:1020300085E18A95F1F70000000000000000000033
:102040000000000000000000000000000000000090
:10205000000000000000000082E08093650695E12A
:102060009A95F1F700000000000000000000000059
:102070000000000000000000000000000000000060
:102080000000000000008093660681E0552309F4FB
:10209000E5C38093650625E12A95F1F7000000006D
:1020A0000000000000000000000000000000000030
:1020B000000000000000000000000000000082E0BE
:1020C0008093650635E13A95F1F7000000000000C5
:1020D0000000000000000000000000000000000000
:1020E0000000000000000000000000008093660671
:1020F00081E0772309F4AFC38093650645E14A95F3
:10210000F1F70000000000000000000000000000E7
:1021100000000000000000000000000000000000BF
:102120000000000082E08093650695E19A95F1F742
:10213000000000000000000000000000000000009F
:10214000000000000000000000000000000000008F
:1021500000008093660681E0EE2309F48BC3809330
:10216000650625E12A95F1F7000000000000000057
:10217000000000000000000000000000000000005F
:102180000000000000000000000082E0809365066F
:1021900035E13A95F1F70000000000000000000072
:1021A000000000000000000000000000000000002F
:1021B00000000000000000008093660681E0FF231D
:1021C00009F455C38093650645E14A95F1F700008F
:1021D00000000000000000000000000000000000FF
:1021E00000000000000000000000000000000000EF
:1021F00082E08093650695E19A95F1F70000000072
:1022000000000000000000000000000000000000CE
:1022100000000000000000000000000000008093AB
:10222000660681E0AA2309F41FC38093650625E1B1
:102230002A95F1F7000000000000000000000000F7
:10224000000000000000000000000000000000008E
:1022500000000000000082E08093650635E13A95B9
:10226000F1F7000000000000000000000000000086
:10227000000000000000000000000000000000005E
:10228000000000008093660681E0BB2309F4E9C2E8
:102290008093650645E14A95F1F7000000000000D3
:1022A000000000000000000000000000000000002E
:1022B00000000000000000000000000082E08093A9
:1022C000650695E19A95F1F7000000000000000016
:1022D00000000000000000000000000000000000FE
:1022E000000000000000000000008093660691E0FE
:1022F0009093650625E12A95F1F7000000000000A3
:1023000000000000000000000000000000000000CD
:10231000000000000000000000000000809365063F
:1023200035E13A95F1F700000000000000000000E0
:10233000000000000000000000000000000000009D
:102340000000000000000000809366069093650680
:1023500045E14A95F1F70000000000000000000090
:10236000000000000000000000000000000000006D
:1023700000000000000000008093650625E12A951A
:10238000F1F7000000000000000000000000000065
:10239000000000000000000000000000000000003D
:1023A000000000002091680620FD8FC2662309F41A
:1023B00005C2062F10E001501109FE01339661504D
:1023C000A62FB0E0119640E050E031E092E090C1DD
:1023D00020E460E09093660685E18A95F1F70000BD
:1023E00000000000000000000000000000000000ED
:1023F00000000000000000000000000000000000DD
:102400009093650685E18A95F1F7000000000000D1
:1024100000000000000000000000000000000000BC
:10242000000000000000000000000000809168062D
:1024300080FF262F9093660685E18A95F1F70000CC
:10244000000000000000000000000000000000008C
:10245000000000000000000000000000000000007C
:102460009093650685E18A95F1F700000000000071
:10247000000000000000000000000000000000005C
:1024800000000000000000000000000080916806CD
:1024900080FD20629093660685E18A95F1F7000041
:1024A000000000000000000000000000000000002C
:1024B000000000000000000000000000000000001C
:1024C0009093650685E18A95F1F700000000000011
:1024D00000000000000000000000000000000000FC
:1024E000000000000000000000000000609168068D
:1024F00060FD20619093660685E18A95F1F7000002
:1025000000000000000000000000000000000000CB
:1025100000000000000000000000000000000000BB
:102520009093650685E18A95F1F7000000000000B0
:10253000000000000000000000000000000000009B
:10254000000000000000000000000000609168062C
:1025500060FD28609093660685E18A95F1F700009A
:10256000000000000000000000000000000000006B
:10257000000000000000000000000000000000005B
:102580009093650685E18A95F1F700000000000050
:10259000000000000000000000000000000000003B
:1025A00000000000000000000000000060916806CC
:1025B00060FD24609093660685E18A95F1F700003E
:1025C000000000000000000000000000000000000B
:1025D00000000000000000000000000000000000FB
:1025E0009093650685E18A95F1F7000000000000F0
:1025F00000000000000000000000000000000000DB
:10260000000000000000000000000000609168066B
:1026100060FD22609093660685E18A95F1F70000DF
:1026200000000000000000000000000000000000AA
:10263000000000000000000000000000000000009A
:102640009093650685E18A95F1F70000000000008F
:10265000000000000000000000000000000000007A
:10266000000000000000000000000000609168060B
:1026700060FD2160909366060417150709F470C089
:102680003093660685E18A95F1F7000000000000AE
:10269000000000000000000000000000000000003A
:1026A000000000000000000000000000909365069C
:1026B00085E18A95F1F700000000000000000000AD
:1026C000000000000000000000000000000000000A
:1026D0000000000000000000909366062193442350
:1026E00009F415C14F5F5F4F4A175B0709F466C0D5
:1026F000309365069093660685E18A95F1F70000B0
:1027000000000000000000000000000000000000C9
:1027100000000000000000000000000000000000B9
:102720009093650625E12A95F1F70000000000006E
:102730000000000000000000000000000000000099
:10274000000000000000000000000000809168060A
:1027500080FF3ECE20EC60E83DCE80936506D8C871
:10276000309365068FCF809366063CC980936606DA
:1027700004C980936606D5C9809366069DC9809377
:10278000660665C921E020936606CACB21E0209346
:10279000660693CB21E0209366065CCB21E0209374
:1027A000660625CB21E020936606EECA21E0209341
:1027B0006606B6CA21E0209366067ECA83E080934F
:1027C000660635E13A95F1F70000000000000000D0
:1027D00000000000000000000000000000000000F9
:1027E0000000000000000000000082E08093650609
:1027F00045E14A95F1F7000081E080936506DF919D
:10280000CF911F910F91089593E09093660695E103
:102810009A95F1F7000000000000000000000000A1
:1028200000000000000000000000000000000000A8
:102830000000000000002093650625E12A95F1F7CD
:10284000000030936506DF91CF911F910F9108959D
:102850002093650628C88093660650CC8093660650
:102860001ACC8093660616CD80936606E0CC8093E2
:102870006606AACC8093660674CC30936506E8C9D8
:1028800083E08093660695E19A95F1F700000000D9
:102890000000000000000000000000000000000038
:1028A0000000000000000000000000000000209375
:1028B000650625E12A95F1F700003093650680E072
:1028C0000C94230C30936506B3CB23E0209366066B
:1028D00025E12A95F1F7000000000000000000004B
:1028E00000000000000000000000000000000000E8
:1028F00000000000000000008093650635E13A9575
:10290000F1F700009093650680E00C94230C2A8375
:10291000E9CE0F931F93CF93DF93EC01613230F038
:1029200080E0DF91CF911F910F91089520E22A95C9
:10293000F1F721E02093660685E18A95F1F7000022
:1029400082E08093660695E19A95F1F70000000019
:102950000000000000000000000000000000000077
:10296000000000000000000000000000000098814E
:1029700080936606892F880F96FDCDC32093660647
:1029800025E12A95F1F7000000000000000000009A
:102990000000000000000000000000000000000037
:1029A000000000000000000092E09093650625E121
:1029B0002A95F1F700000000000000000000000070
:1029C0000000000000000000000000000000000007
:1029D0000000000000009093660691E086FD5FC352
:1029E0009093660695E19A95F1F7000000000000CB
:1029F00000000000000000000000000000000000D7
:102A000000000000000000000000000092E0909331
:102A1000650625E12A95F1F700000000000000009E
:102A200000000000000000000000000000000000A6
:102A3000000000000000000000009093660691E096
:102A400085FF5CC39093650695E19A95F1F70000C8
:102A50000000000000000000000000000000000076
:102A60000000000000000000000000000000000066
:102A700092E09093650625E12A95F1F700000000A9
:102A80000000000000000000000000000000000046
:102A90000000000000000000000000000000909313
:102AA000660691E084FF27C39093650695E19A95A9
:102AB000F1F700000000000000000000000000002E
:102AC0000000000000000000000000000000000006
:102AD0000000000092E09093650625E12A95F1F749
:102AE00000000000000000000000000000000000E6
:102AF00000000000000000000000000000000000D6
:102B000000009093660691E083FF02C390936506F0
:102B100095E19A95F1F70000000000000000000028
:102B200000000000000000000000000000000000A5
:102B3000000000000000000092E09093650625E18F
:102B40002A95F1F7000000000000000000000000DE
:102B50000000000000000000000000000000000075
:102B60000000000000009093660691E082FFCDC255
:102B70009093650695E19A95F1F70000000000003A
:102B80000000000000000000000000000000000045
:102B900000000000000000000000000092E09093A0
:102BA000650625E12A95F1F700000000000000000D
:102BB0000000000000000000000000000000000015
:102BC000000000000000000000009093660681FFF6
:102BD00098C281E08093650685E18A95F1F700004F
:102BE00000000000000000000000000000000000E5
:102BF00000000000000000000000000000000000D5
:102C000082E08093650695E19A95F1F70000000057
:102C100000000000000000000000000000000000B4
:102C20000000000000000000000000000000809391
:102C3000660691E09093650625E12A95F1F700007C
:102C40000000000000000000000000000000000084
:102C50000000000000000000000000000000000074
:102C60008093650625E12A95F1F700000000000039
:102C70000000000000000000000000000000000054
:102C800000000000000000000000000080936606C5
:102C90009093650625E12A95F1F7000000000000F9
:102CA0000000000000000000000000000000000024
:102CB0000000000000000000000000008093650696
:102CC00025E12A95F1F70000000000000000000057
:102CD00000000000000000000000000000000000F4
:102CE00000000000000000002091680620FD16C2D0
:102CF000662309F4DAC1062F10E001501109FE0124
:102D000033966150A62FB0E0119640E050E031E0DC
:102D100092E090C120E460E09093660685E18A9598
:102D2000F1F70000000000000000000000000000BB
:102D30000000000000000000000000000000000093
:102D4000000000009093650685E18A95F1F7000088
:102D50000000000000000000000000000000000073
:102D60000000000000000000000000000000000063
:102D70008091680680FF262F9093660685E18A95EC
:102D8000F1F700000000000000000000000000005B
:102D90000000000000000000000000000000000033
:102DA000000000009093650685E18A95F1F7000028
:102DB0000000000000000000000000000000000013
:102DC0000000000000000000000000000000000003
:102DD0008091680680FD20629093660685E18A9561
:102DE000F1F70000000000000000000000000000FB
:102DF00000000000000000000000000000000000D3
:102E0000000000009093650685E18A95F1F70000C7
:102E100000000000000000000000000000000000B2
:102E200000000000000000000000000000000000A2
:102E30006091680660FD20619093660685E18A9541
:102E4000F1F700000000000000000000000000009A
:102E50000000000000000000000000000000000072
:102E6000000000009093650685E18A95F1F7000067
:102E70000000000000000000000000000000000052
:102E80000000000000000000000000000000000042
:102E90006091680660FD28609093660685E18A95DA
:102EA000F1F700000000000000000000000000003A
:102EB0000000000000000000000000000000000012
:102EC000000000009093650685E18A95F1F7000007
:102ED00000000000000000000000000000000000F2
:102EE00000000000000000000000000000000000E2
:102EF0006091680660FD24609093660685E18A957E
:102F0000F1F70000000000000000000000000000D9
:102F100000000000000000000000000000000000B1
:102F2000000000009093650685E18A95F1F70000A6
:102F30000000000000000000000000000000000091
:102F40000000000000000000000000000000000081
:102F50006091680660FD22609093660685E18A951F
:102F6000F1F7000000000000000000000000000079
:102F70000000000000000000000000000000000051
:102F8000000000009093650685E18A95F1F7000046
:102F90000000000000000000000000000000000031
:102FA0000000000000000000000000000000000021
:102FB0006091680660FD216090936606041715070E
:102FC00009F470C03093660685E18A95F1F7000038
:102FD00000000000000000000000000000000000F1
:102FE00000000000000000000000000000000000E1
:102FF0009093650685E18A95F1F7000000000000D6
:1030000000000000000000000000000000000000C0
:103010000000000000000000000000009093660621
:103020002193442309F49BC04F5F5F4F4A175B070E
:1030300009F43BC0309365069093660625E12A9516
:10304000F1F7000000000000000000000000000098
:103050000000000000000000000000000000000070
:10306000000000009093650685E18A95F1F7000065
:103070000000000000000000000000000000000050
:103080000000000000000000000000000000000040
:103090008091680680FF3ECE20EC60E83DCE9093A4
:1030A0006506A0CC309365068FCF83E080936606DB
:1030B00085E18A95F1F700000000000000000000A3
:1030C0000000000000000000000000000000000000
:1030D000000000000000000082E08093650695E19A
:1030E0009A95F1F7000081E080936506DF91CF911A
:1030F0001F910F91089590936606D8CC9093660621
:10310000A3CC81E08093660667CD9093660632CDAE
:1031100090936606FDCC2093650632CC23E0209385
:10312000660625E12A95F1F7000000000000000086
:10313000000000000000000000000000000000008F
:10314000000000000000000000008093650685E19B
:103150008A95F1F700009093650680E0E2CB2A8320
:1031600063CFDC0120E22A95F1F781E080936606C7
:1031700035E13A95F1F7000092E09093660625E17B
:103180002A95F1F700000000000000000000000098
:10319000000000000000000000000000000000002F
:1031A0000000000000002C9190936606922F990F6A
:1031B00026FDF9C38093660635E13A95F1F70000E4
:1031C00000000000000000000000000000000000FF
:1031D00000000000000000000000000000000000EF
:1031E00082E08093650625E12A95F1F70000000052
:1031F00000000000000000000000000000000000CF
:1032000000000000000000000000000000008093AB
:10321000660681E096FF74C38093650635E13A95B2
:10322000F1F70000000000000000000000000000B6
:10323000000000000000000000000000000000008E
:103240000000000082E08093650625E12A95F1F7F1
:10325000000000000000000000000000000000006E
:10326000000000000000000000000000000000005E
:1032700000008093660681E095FF3FC3809365065A
:1032800035E13A95F1F70000000000000000000071
:10329000000000000000000000000000000000002E
:1032A000000000000000000082E08093650625E138
:1032B0002A95F1F700000000000000000000000067
:1032C00000000000000000000000000000000000FE
:1032D0000000000000008093660681E094FF1CC39C
:1032E0008093650635E13A95F1F700000000000093
:1032F00000000000000000000000000000000000CE
:1033000000000000000000000000000082E0809348
:10331000650625E12A95F1F7000000000000000095
:10332000000000000000000000000000000000009D
:10333000000000000000000000008093660681E0AD
:1033400093FFE7C28093650635E13A95F1F70000F7
:10335000000000000000000000000000000000006D
:10336000000000000000000000000000000000005D
:1033700082E08093650625E12A95F1F700000000C0
:10338000000000000000000000000000000000003D
:10339000000000000000000000000000000080931A
:1033A000660681E092FFB2C28093650635E13A95E8
:1033B000F1F7000000000000000000000000000025
:1033C00000000000000000000000000000000000FD
:1033D0000000000082E08093650625E12A95F1F760
:1033E00000000000000000000000000000000000DD
:1033F00000000000000000000000000000000000CD
:1034000000008093660681E091FF7DC2809365068F
:1034100035E13A95F1F700000000000000000000DF
:10342000000000000000000000000000000000009C
:10343000000000000000000092E09093650685E126
:103440008A95F1F700000000000000000000000075
:10345000000000000000000000000000000000006C
:103460000000000000009093660621E020936606AD
:1034700035E13A95F1F7000000000000000000007F
:10348000000000000000000000000000000000003C
:1034900000000000000000009093650685E18A9519
:1034A000F1F7000000000000000000000000000034
:1034B000000000000000000000000000000000000C
:1034C00000000000909366062093650635E13A956A
:1034D000F1F7000000000000000000000000000004
:1034E00000000000000000000000000000000000DC
:1034F000000000009093650685E18A95F1F70000D1
:1035000000000000000000000000000000000000BB
:1035100000000000000000000000000000000000AB
:1035200030916806832F817030FD40C2662309F414
:10353000F6C1FD0133966150462F50E04C5F5F4F5E
:103540004A0F5B1F92E021E089C12093650635E1B7
:103550003A95F1F7000000000000000000000000B4
:10356000000000000000000000000000000000005B
:103570000000000000009093650635E13A95F1F7F0
:10358000000000000000000000000000000000003B
:10359000000000000000000000000000000000002B
:1035A000000090936606308135FFA1C12093650627
:1035B00035E13A95F1F7000000000000000000003E
:1035C00000000000000000000000000000000000FB
:1035D00000000000000000009093650635E13A9578
:1035E000F1F70000000000000000000000000000F3
:1035F00000000000000000000000000000000000CB
:103600000000000090936606308134FF6DC1209366
:10361000650635E13A95F1F7000000000000000072
:10362000000000000000000000000000000000009A
:10363000000000000000000000009093650635E1E6
:103640003A95F1F7000000000000000000000000C3
:10365000000000000000000000000000000000006A
:1036600000000000000090936606308133FF39C1EE
:103670002093650635E13A95F1F70000000000005F
:10368000000000000000000000000000000000003A
:10369000000000000000000000000000909365069C
:1036A00035E13A95F1F7000000000000000000004D
:1036B000000000000000000000000000000000000A
:1036C000000000000000000090936606308132FF89
:1036D00005C12093650635E13A95F1F70000000039
:1036E00000000000000000000000000000000000DA
:1036F00000000000000000000000000000009093A7
:10370000650635E13A95F1F7000000000000000081
:1037100000000000000000000000000000000000A9
:103720000000000000000000000090936606308159
:1037300031FFD1C02093650635E13A95F1F70000DD
:103740000000000000000000000000000000000079
:103750000000000000000000000000000000000069
:103760009093650635E13A95F1F7000000000000FE
:103770000000000000000000000000000000000049
:1037800000000000000000000000000090936606AA
:1037900031963C9130FF9CC02093650635E13A9507
:1037A000F1F7000000000000000000000000000031
:1037B0000000000000000000000000000000000009
:1037C000000000009093650635E13A95F1F700009E
:1037D00000000000000000000000000000000000E9
:1037E00000000000000000000000000000000000D9
:1037F000909366062093650635E13A95F1F700004F
:1038000000000000000000000000000000000000B8
:1038100000000000000000000000000000000000A8
:103820009093650635E13A95F1F70000000000003D
:103830000000000000000000000000000000000088
:103840000000000000000000000000003091680649
:1038500030FD87C0E417F50709F461C09093660650
:10386000DF01308137FD46C02093660635E13A9589
:10387000F1F7000000000000000000000000000060
:103880000000000000000000000000000000000038
:10389000000000009093650635E13A95F1F70000CD
:1038A0000000000000000000000000000000000018
:1038B0000000000000000000000000000000000008
:1038C00090936606308136FD40CE209366063FCE4B
:1038D0002093660663CF209366062ECF209366065C
:1038E000FACE20936606C6CE2093660692CE20932B
:1038F00066065ECE20936506B9CF80936606C0CC7F
:10390000809366068BCC8093660682CD8093660694
:103910004DCD8093660618CD80936606E3CC83E098
:103920008093660695E19A95F1F70000000000008B
:103930000000000000000000000000000000000087
:1039400000000000000000000000000082E0809302
:10395000650625E12A95F1F7000081E08093650670
:10396000089593E09093660695E19A95F1F700002B
:103970000000000000000000000000000000000047
:103980000000000000000000000000000000000037
:1039900092E09093650625E12A95F1F7000091E009
:1039A0009093650608958093650606CC83E0809326
:1039B000660635E13A95F1F70000000000000000CE
:1039C00000000000000000000000000000000000F7
:1039D000000000000000000000009093650685E1F3
:1039E0008A95F1F700002093650680E00895CF9353
:1039F0000E94EF0288E2809344211092452161E009
:103A000084E491E20E941B0C809146218733A9F047
:103A10002FEF87EA91E6215080409040E1F700C007
:103A2000000061E084E491E20E941B0C8091462139
:103A3000873319F080E0CF9108951092462184E4F5
:103A400091E20E94C8052FEF8DEE92E02150804058
:103A50009040E1F700C00000CFE3C093452180E231
:103A60008093462184E491E20E94C805882311F3E3
:103A70002FEF87EA91E6215080409040E1F700C0A7
:103A800000008EE3809345211092462184E491E268
:103A90000E94C805882371F22FEF89EF90E0215032
:103AA00080409040E1F700C0000087E0809345210E
:103AB0001092462184E491E20E94C805882309F40B
:103AC000B9CFC09345211092462184E491E20E942F
:103AD000C805882309F4AECF2FEF89EF90E021507D
:103AE00080409040E1F700C000008CE080934621C8
:103AF00084E491E20E94C8052FEF8DEE92E0215000
:103B000080409040E1F700C000002FEF83EF91E08C
:103B1000215080409040E1F700C0000081E08BCF51
:103B20000F93CF93DF93EC016B834C832D8363E082
:103B300018DB8823B9F0002351F080E0EFE3FFE1C8
:103B40003197F1F700C000008F5F0813F7CF61E0F5
:103B5000CE010E948914882329F08A81DF91CF91B8
:103B60000F91089581E0DF91CF910F91089522E1A7
:103B7000FC01238321E0248362E0F3DA91E08111E8
:103B800090E0892F08950F931F93CF93DF93EC015B
:103B90008B0182E18B8381E08C8367E0CE010E9400
:103BA0008914882399F08C81F80180838D81818329
:103BB0008E8182838F8183838885848389858583B1
:103BC0008B81DF91CF911F910F91089581E0DF915B
:103BD000CF911F910F910895189518950E94250176
:103BE0008091A20087688093A2007894FFCF0F9302
:103BF0000E94EF028AE02FEF33EC99E02150304031
:103C00009040E1F700C000008150A9F785E580935E
:103C10006721109268218AE0809369210DE222E0F9
:103C200040E060E187E691E27BDF21E041E060E196
:103C300087E691E275DF21E040E062E587E691E208
:103C40006FDF21E043E064E487E691E269DF21E091
:103C500042E062E587E691E263DF2FEF37EA81E633
:103C6000215030408040E1F700C000000F910895DE
:103C7000222309F45BC030E23093520038E03093E5
:103C800050003091510033FFFCCF611538E47307C9
:103C900038EE830731E0930709F482C0611534E2FE
:103CA000730734EF8307910509F47CC0611532E195
:103CB00073073AE78307910509F44BC0611539E0B2
:103CC00073073DE38307910509F46EC0603834E85B
:103CD00073073EE18307910509F460C0603432E464
:103CE00073073FE08307910509F462C0603231EA4F
:103CF000730737E08307910509F458C0603930ED48
:103D0000730733E08307910509F454C0683438EE33
:103D1000730731E08307910509F44EC06432744F94
:103D20008105910509F04AC084E414C032E2309361
:103D300052003AE0309350003091510031FFFCCFF7
:103D40003091510033FDA1CF3091510033FFF8CFB6
:103D50009CCF8CE098ED94BF222399F023E0209330
:103D6000400094BF80934100442329F088ED84BF34
:103D700081E08093420088ED84BF81E080938000E1
:103D8000089521E02093400094BF8093410094BFA8
:103D900082E08093560020936000E6CF8CE1DACF7A
:103DA00080E0D8CF84E0D6CF84E1D4CF8CE2D2CFEC
:103DB00084E2D0CF84E3CECF8CE3CCCF80E00895F3
:103DC00088ED84BF81E080938000089588ED84BFF2
:103DD00083E080938000FFCFFC01308181E090E0A0
:103DE000062E01C0880F0A94EAF78095832380830A
:103DF0007096E60FF11D8081422B807C482B40831A
:103E00000895FC01308181E090E0062E01C0880F0A
:103E10000A94EAF7382B30837096E60FF11D808103
:103E2000807C842B8083211103C080818760808304
:103E300008950F93FC013185842F90E0880F991F1E
:103E4000A3E0B0E0082E01C0AA0F0A94EAF7A095FB
:103E5000A323082E01C0660F0A94EAF7A62BA187B8
:103E600041110FC00023A9F02287248581E090E052
:103E7000042E01C0880F0A94EAF7282B24870F919B
:103E80000895413091F7011108C08385822B838703
:103E9000ECCF8285822B8287E8CF2387E6CFFC0197
:103EA00010828CE081874150510946A357A3268395
:103EB000608308952091CF0127FDFCCF8093C0013E
:103EC0009093C1011092C20186E08093CA0188EDEF
:103ED00084BF81E08093CB018091C401089520913B
:103EE000CF0127FDFCCF2091CF0121FF08C026E3A1
:103EF0002093CA0128ED24BF21E02093CB0123E3C6
:103F00002093CA018093C0019093C1011092C20115
:103F10006093C40185E38093CA0188ED84BF81E08A
:103F20008093CB010895E1E7F0E090819D7F90833D
:103F300091E090930002E1E0F2E020E6208320810E
:103F400020838093020285E08093040290932002F4
:103F5000E2E2F2E01082808180830895880F880F6A
:103F6000880F809321028091200280688093200234
:103F70008091230280FFFCCF81E080932302809117
:103F80002402909125029F70209136203091372095
:103F9000821B930B0895FF920F931F93CF93DF9390
:103FA0008C01C7E0D0E0F12C08C0F1100BC0CE01AD
:103FB00096DF2196C032D10571F0F80161918F0131
:103FC0006111F3CF60E0CE018ADFFF24F3942196E4
:103FD000C032D10591F7DF91CF911F910F91FF90E2
:103FE0000895CF93962F1092FB20803208F47FC063
:103FF000282F30E020523109F901E05DFF4D50815A
:10400000220F331FF901EC5DFF4DC081F901E85E1D
:10401000FF4D2081318120939C2030939D209093EF
:104020008A21252F2F702C9FC02D1124EAE0EC0F40
:10403000E0938B2180938C212FEF20938D21506171
:1040400050938E2141116BC08091982090919920BE
:10405000A0919A20B0919B2080938F2190939021E2
:10406000A0939121B0939221209196203091972096
:1040700020939321309394218E2F90E08E3F9105D1
:10408000A4F520919C2030919D2040E0842F90E069
:10409000F901E80FF91F5081FC01EB56FE4D5083EA
:1040A0004F5F4C13F3CF20918B212E5F30E02150D6
:1040B0003109121613060CF09EC080E090E040E03B
:1040C00050E0FC01E657FE4D8081580F4F5F842F72
:1040D00090E082179307ACF3F901E657FE4D508349
:1040E00080913820813009F46BC0CF9108958F30D2
:1040F000E0F7282F30E0F901EC57FF4D5081220FF7
:10410000331FF901EA59FF4DC081F901E85BFF4D0A
:104110002081318120939C2030939D2080CF20915D
:104120004C084091B0205091B1206091B220709124
:10413000B32020FF21C04F5F5F4F6F4F7F4F4093F1
:104140008F2150939021609391217093922120911F
:104150006008309161082093932130939421883036
:1041600009F08ACF933009F087CF109293211092F3
:104170009421E0918B2180CF40938F215093902107
:104180006093912170939221209160083091610891
:104190002093932130939421F091A120F03DF9F6E2
:1041A0002F303105E0F64F5F5F4F6F4F7F4F4093E9
:1041B0008F21509390216093912170939221CFCFC2
:1041C00083E88093A200C091A30B9091A30B9C7FE6
:1041D0009093A30B60918B216E5F8AE891E2ADD73B
:1041E0009091A30B8C2F8370892B8093A30B87E86E
:1041F0008093A2007ACF50E06FCFCF93E0918D3AB9
:104200002E2F30E024303105BCF090E020E030E08B
:10421000F901EF56F54C4081F901E956F54C408320
:104220009F5F292F30E0E0918D3A4E2F50E04350B0
:1042300051092417350764F380938C3AEA5FE093C1
:104240008D3A8091903A80618093903A80914C08A9
:1042500080FF5FC08091B0209091B120A091B220EA
:10426000B091B320AC01BD014F5F5F4F6F4F7F4FE7
:104270004093913A5093923A6093933A7093943A60
:1042800020916008309161082093953A3093963AD6
:104290002091FB202223B9F020914C0820FF69C017
:1042A0000196A11DB11D8093913A9093923AA093EB
:1042B000933AB093943A809160089091610880930A
:1042C000953A9093963AF0E0E357F54C108260915E
:1042D0008D3A40E0262F30E080E090E0F901E3578E
:1042E000F54CDC01A457B54C20818C91280F20831C
:1042F0004F5F60918D3A262F30E0842F90E0281791
:10430000390764F780913820813009F457C0CF9184
:1043100008958091B0209091B120A091B220B091E9
:10432000B3208093913A9093923AA093933AB093AA
:10433000943A20916008309161082093953A309327
:10434000963A4091A120403D09F0A2CF2F3031058F
:1043500008F09ECFAC01BD014F5F5F4F6F4F7F4FA5
:104360004093913A5093923A6093933A7093943A6F
:104370008FCF8093913A9093923AA093933AB093CF
:10438000943A20916008309161082093953A3093D7
:10439000963A4091A120403D09F095CF2F3031054C
:1043A00008F091CF0196A11DB11D8093913A909391
:1043B000923AA093933AB093943A85CF83E880934E
:1043C000A200C091A30B9091A30B9C7F9093A30B91
:1043D0006E5F8CE89AE3B1D69091A30B8C2F83701B
:1043E000892B8093A30B87E88093A200CF91089537
:1043F0003F924F925F926F927F928F929F92AF9275
:10440000BF92CF92DF92EF92FF920F931F93CF93C1
:10441000DF93CDB7DEB73C01962E142FF22E4D88D8
:104420005E88CEDC21E041E060E078E488EE91E057
:104430001FDC81E0809348006092A7207092A82042
:104440009092A9201093AA20E092AB208093AC20F8
:1044500089E08093AD20F092AE200093AF201092BF
:10446000B0201092B1201092B2201092B32010927E
:10447000B4201092B52082E090E01CDD382E83E05D
:1044800090E018DD982E8FEF981609F4CAC0F31447
:1044900009F49CC06FED80E090E021DD6F2D82E09B
:1044A00090E01DDD61E083E090E019DD0E944D01A8
:1044B00080E090E0FFDC8E3E09F493C080E68093BC
:1044C000B62080E48093B7200E9455010E945601D7
:1044D000A092A520B092A620C092A320D092A420A2
:1044E0008092A22087E090E0E5DC8F3F09F4D0C005
:1044F00008EB10E2F6EFEF2EFF24FA94C701875A7B
:1045000090427C01C701800F911FD4DCF801819398
:104510008F01F0E2013D1F07A9F789E1E8EBF0E226
:10452000A5EDB0E201900D928A95E1F784E090E06C
:10453000C1DC082F10E00093D1201093D22085E039
:1045400090E0B8DC302F2227282B2093D120309305
:10455000D22021E042E15AE767E080E498E09FDC66
:10456000E091A12081E08E0F8093A120F0E0E05C3B
:10457000FF4D808190E001978093680890936908CF
:1045800081E08093470820E040E066E080E096E02C
:1045900038DC80E48093050640E060E081E090E054
:1045A000B7D415D580EB90E2DF91CF911F910F9199
:1045B000FF90EF90DF90CF90BF90AF909F908F9043
:1045C0007F906F905F904F903F90E5C691E0991279
:1045D00061CF0E944D0180E090E06CDC8E3E09F0DE
:1045E0006DCF81E090E066DC8093B620A114B10429
:1045F00091F0760185010C0D1D1DA0E26A2E712C33
:10460000C30158DCF70181937F01FFEF6F1A7F0A26
:10461000E016F106A9F780E88093B7200E945601C2
:1046200057CF6F2D82E090E05ADC61E083E090E0AC
:1046300056DC82E090E03EDC382E83E090E03ADC0D
:10464000982E8201B7E06B2E712CE12C0BC0E1108B
:104650000EC0C30144DCFFEF6F1A7F0A80E26816C8
:10466000710489F0F80161918F016111F0CF60E070
:10467000C30135DCEE24E394FFEF6F1A7F0A80E27A
:104680006816710479F76FED80E090E028DCFFCECA
:10469000720107E010E0D12C0AC0D1100DC0C80192
:1046A0001EDC0F5F1F4F0032110509F421CFF70107
:1046B00061917F016111F1CF60E0C80110DCDD2460
:1046C000D394EFCF0E944C0120E480E092EEA4E06E
:1046D000B0E00197A109B1090097A105B105C9F79B
:1046E00020930706F2CF8091B0209091B120A09145
:1046F000B220B091B3200196A11DB11D8093B020CE
:104700009093B120A093B220B093B3208091F92070
:104710008F5F8093F9208EE090E0809368089093FB
:10472000690881E08093A1200E945C0180914C087F
:10473000806180934C080E945E010E946401409158
:10474000B62047FD03C0842F8370B3C0842F8370CD
:10475000813009F0AEC01092FB2080EB90E2809394
:104760009C2090939D2083E080938A218EE080930B
:104770008B2188E080938C218FEF80938D2184E1C1
:1047800080938E2180914C0880FF18C08091B020CA
:104790009091B120A091B220B091B3200196A11DBB
:1047A000B11D80938F2190939021A0939121B0937C
:1047B0009221809160089091610826C08091B0207C
:1047C0009091B120A091B220B091B32080938F211D
:1047D00090939021A0939121B09392212091600811
:1047E000309161085091A120503D71F42F30310576
:1047F00058F40196A11DB11D80938F2190939021B3
:10480000A0939121B0939221109293211092942120
:104810008091B0209091B120A091B220B091B320AE
:104820008093952190939621A0939721B0939821FE
:1048300020918B212E5F30E0215031091216130692
:1048400084F450E060E080E090E0FC01E657FE4D2B
:104850008081680F5F5F852F90E082179307ACF32C
:1048600001C060E0F901E657FE4D60838091382079
:10487000813021F583E88093A200C091A30B909131
:10488000A30B9C7F9093A30B60918B216E5F8AE8B2
:1048900091E253D49091A30B8C2F8370892B80933A
:1048A000A30B87E88093A2004091B620842F8370E9
:1048B00000C0882339F0813019F400C092E003C0B1
:1048C00091E001C094E08091B020892321F080E440
:1048D0008093060605C046FF03C080E4809305066A
:1048E0000E945D0180914C0884FF05C08091A0204A
:1048F000811101C0E7DE18959091B6209370913038
:1049000009F00895462F63E06CCBCF92DF92FF92BF
:104910000F931F93CF93DF931F921F92CDB7DEB7F4
:104920008F3040F4E82FF0E0DF01AC57BF4D9C9191
:10493000961759F080E00F900F90DF91CF911F9163
:104940000F91FF90DF90CF900895EE0FFF1FEA596F
:10495000FF4D608171816217730761F7883009F438
:104960007FC08A30D1F18B3011F18C3009F4A1C0B5
:104970008D3001F7FA0180819181019609F4BFC061
:104980008091D4208823B1F2FA01608185E090E023
:1049900049835A83A4DA49815A81FA01618184E00A
:1049A00090E09DDA83E08093A02081E0C4CFFA01FB
:1049B0008081813009F4B7C0823009F4A4C084300A
:1049C00009F4C2C0883089F76FEF87E090E087DA9A
:1049D00083E08093A02081E0AECFFA01808186FD44
:1049E00004C080E48093060680811091B620837F06
:1049F0008093B620FA01808185FF41C015FF76C003
:104A000083FF10C081E08093F1201092EF2080930B
:104A1000F0201092EE208091B620877F8093B62000
:104A2000FA018081837079F4812F837009F4BDCFFE
:104A30001092F12049835A830E94590149815A8179
:104A4000FA0180818370813029F1833009F0ADCF84
:104A50001370133009F4A9CF0E945B0181E06BCF82
:104A6000FA0180819181A281B3818093B0209093DB
:104A7000B120A093B220B093B32081E05CCF15FFAA
:104A8000BFCF49835A830E94580149815A81FA0154
:104A90008081B6CF812F8370813009F486CF49831E
:104AA0005A830E945A0149815A81FA018081837098
:104AB000CCCF8A0187E0C82ED12CF12C0CC0F1108C
:104AC0000FC0C6010CDAFFEFCF1ADF0A20E2C216D0
:104AD000D10409F467CFF80161918F016111EFCF23
:104AE00060E0C601FCD9FF24F394EDCF49835A83DB
:104AF0000E94570149815A81FA01808181CF81E06A
:104B00008093D42018CF80E090E049835A83D2D993
:104B100049815A818E3E09F00DCF83E08093A02019
:104B2000FA0180814CCF85ED90E249835A8333DAD4
:104B30006FED80E090E0D3D983E08093A02049819D
:104B40005A81FA01808138CF6EEE80E090E049838F
:104B50005A83C5D96091B62081E090E0C0D9809198
:104B6000A5209091A62049815A81892BC9F000E0A7
:104B700010E0E091A320F091A420E00FF11F6081EC
:104B8000C801809649835A83AAD90F5F1F4F80912D
:104B9000A5209091A62049815A810817190748F34A
:104BA00083E08093A020FA0180810CCF0E945C01F9
:104BB0008091680890916908E091A12021E02E0F72
:104BC0002093A120E770F0E0E05CFF4D3081830F7F
:104BD000911D809368089093690820FD2AC18091F7
:104BE0003820813069F48093250783E88093A20000
:104BF0008091A30B8F7C8093A30B87E88093A20006
:104C00008091F820811103C08091F7200FC081505E
:104C10008093F820882319F08091F72007C0109224
:104C2000F8201092F7201092F2209FC0882309F4F8
:104C30009CC0A0918A22B0918B2280918D3A8F3FA7
:104C400059F010918E3A50918F3A0091903A31E993
:104C5000E32E3AE3F32E0AC01091903A5091913A24
:104C60000091923A23E9E22E2AE3F22EFD013196D9
:104C700081F090E040E020E030E0E901C457D54CFD
:104C80002881420F9F5F292F30E02E173F07A8F39E
:104C900001C040E0E457F54C9081491364C05F3F88
:104CA00009F061C090918C3A913099F51D31B0F4C2
:104CB0001F3008F022C1E12FF0E0EC57FF4D90814A
:104CC00009131BC1193009F013C18091600890913C
:104CD00061088093B4209093B5200AC1602F812F82
:104CE0000E943D029091B62094FD3DC0811103C009
:104CF00080918D3A05C041E061E0812F72D933C0C7
:104D00001092FB2090E0883F91056CF589E075DA00
:104D10002AC0CD010497202F2F70622F70E00AD493
:104D20001D3130F49B01A701602F812FEEDD06C0FD
:104D30009B01A701602F812F0E9456029091B620FF
:104D400094FD11C0882329F041E062E0812F49D908
:104D50000AC01092FB2080918D3A90E0883F910527
:104D600014F48AE04ADA1092F720809138208130DA
:104D700009F05CC08091080786FF46C080919E20A4
:104D800090919F200196883B2BE0920729F0809319
:104D90009E2090939F203CC010929E2010929F20B6
:104DA0008091B620982F93709130E9F486FD03C06E
:104DB00090E490930606982F907F9093B62083FFFF
:104DC0000BC01092EF2081E08093F0201092EE2033
:104DD000892F877F8093B6201092F1200E9459017D
:104DE0009091382001C091E01092F5201092F620A9
:104DF0001092F3201092F4208091A30B8C7F80936B
:104E0000A30B913029F012C010929E2010929F2087
:104E100083E88093A2008091A30B80638093A30B0F
:104E200087E88093A20081E0809326070E946301B7
:104E300002C00E9464018091A020882339F0815033
:104E40008093A020811102C00E94E61E8091F02074
:104E50008823E1F08091A12083708230B9F48091A1
:104E6000EE208F3060F4893009F04CC0209160084A
:104E7000309161082093B4203093B52043C08F5FF8
:104E80008093EE208C3111F41092F0208091F1206B
:104E9000882309F18091A1208370E9F48091EF20AB
:104EA000E82FF0E0E05DFF4D6081805E0E943D02F2
:104EB000882331F08091EF2041E061E0805E91D85D
:104EC0008091EF208F5F8093EF209091A220891333
:104ED00002C01092F1200E945D0180914C0884FF75
:104EE00005C08091A020811101C0ECDB189510C095
:104EF0008091B62084FFFFCE36CF9091B62094FFEC
:104F0000FFCE31CF41E061E06CD88091EE20B7CF89
:104F1000FF920F931F93CF93DF931F921F92CDB7F2
:104F2000DEB789839A83F62E142F20E040E060E0FC
:104F300080E297E00E94011F20E040E066E080E010
:104F400097E00E94EC1E01E020E440E063E080E096
:104F500097E00E94191F81E08093260783E08093E9
:104F6000A50B89818093A60B8F2D90E18902B0015A
:104F700011248A818F70862B8093A70B112329F02F
:104F80008091A40B84608093A40B88E08093A50695
:104F900020E040E063E080EA96E00E94011F20E00C
:104FA00040E062E080EA96E00E94EC1E80910807F3
:104FB00086FF05C08091A30B8C7F8093A30B0F907D
:104FC0000F90DF91CF911F910F91FF900895E0EA2C
:104FD000FBE084818861848380EE818383818063A8
:104FE000838308951F920F920FB60F92112408B673
:104FF0000F9218BE09B60F9219BE0BB60F921BBEC8
:105000002F933F934F935F936F937F938F939F93D0
:10501000AF93BF93EF93FF930E9439022091F52045
:105020003091F620C90101968093F5209093F620E7
:10503000F901E457FD4D20812093A00B811528E153
:10504000920729F12091F3203091F4202817390795
:1050500029F48091A30B8C7F8093A30B0E943A02CA
:10506000FF91EF91BF91AF919F918F917F916F9140
:105070005F914F913F912F910F900BBE0F9009BE02
:105080000F9008BE0F900FBE0F901F9018951092B2
:10509000F5201092F62080E090E0D4CF1F920F927E
:1050A0000FB60F92112408B60F9218BE09B60F92D0
:1050B00019BE0BB60F921BBE2F933F934F935F9376
:1050C0006F937F938F939F93AF93BF93EF93FF93D0
:1050D0000E943B028091080786FD29C02091F5209F
:1050E0003091F6208091F3209091F4202817390711
:1050F00029F08091A30B83608093A30B0E943C0254
:10510000FF91EF91BF91AF919F918F917F916F919F
:105110005F914F913F912F910F900BBE0F9009BE61
:105120000F9008BE0F900FBE0F901F9018958091A2
:10513000A30B8C7F8093A30BE1CFBF92CF92DF9222
:10514000EF92FF920F931F93CF93DF936C01B62ED4
:105150008091080786FD05C08091A30B8360809332
:10516000A30B0091F3201091F420C0E0D8E1C01B04
:10517000D10BEB2CF12CCE15DF0558F1A701B601B0
:10518000C80184579D4DF9D18091F5209091F6206A
:10519000E00EF11EE092F320F092F420E11428E1F9
:1051A000F20609F446C008171907A8F5E816F9062B
:1051B00090F18FEFE81AF80AE092F520F092F620CD
:1051C000E11428E1F20639F51092F5201092F6204C
:1051D00022C0AE01B601C80184579D4DCED1BC1A84
:1051E000EB2CF12CBE016C0D7D1DA7018CE892E229
:1051F000C4D18091F5209091F620E092F320F092B6
:10520000F4200817190788F42FEFE21AF20AE09247
:10521000F520F092F620DF91CF911F910F91FF9032
:10522000EF90DF90CF90BF900895E816F90660F7F1
:10523000F2CF1092F3201092F420892B61F781E0D5
:1052400090E08093F5209093F620E5CF1F920F9287
:105250000FB60F92112408B60F9218BE09B60F921E
:1052600019BE0BB60F921BBE2F933F934F935F93C4
:105270006F937F938F939F93AF93BF93EF93FF931E
:105280000E9437029091A00BE091F22081E08E0FF6
:105290008093F220F0E0E457F54C9083813019F1CF
:1052A000843049F190E020918A2230918B2282173C
:1052B000930779F10E943802FF91EF91BF91AF916E
:1052C0009F918F917F916F915F914F913F912F911E
:1052D0000F900BBE0F9009BE0F9008BE0F900FBE2F
:1052E0000F901F90189580918C3A81508230D0F1A8
:1052F0001092F220DFCF80918D3A8F3F01F190E044
:105300008E3F9105A9F3029680938A2290938B2277
:10531000D1CF20913820213061F120918D3A2F3F5B
:1053200029F122E030E0821B930B80938A22909334
:105330008B221092F22081E08093F720BBCF8091E6
:105340008D3A90918E3A04968F3F910509F080F640
:1053500080918E3A90918F3A049680938A2290930E
:105360008B22A8CF82E38093F820A4CF24E030E002
:10537000DACF2093250783E88093A2008091A30BC6
:105380008F7C8093A30B87E88093A20080918A2270
:1053900090918B22C2CFCF93DF931F921F92CDB7F4
:1053A000DEB723E130E029833A838093FC20909399
:1053B000FD2083E08093B50889818093B6088A81B7
:1053C0008F708093B70820E048E166E080E496E0C3
:1053D0000E94EC1E80E18093B408E3EBF8E080814A
:1053E000806380830F900F90DF91CF9108951F927B
:1053F0000F920FB60F92112408B60F9218BE09B67D
:105400000F9219BE0BB60F921BBE2F938F939F93D3
:10541000AF93BF93EF93FF938091B0088A3AE9F17D
:105420008F3A09F44FC09091FA20923009F44EC09F
:1054300008F478C0943009F455C008F44DC0953094
:1054400079F5809301211092FA208091F9208A3019
:1054500008F44EC082EF99E780936008909361084A
:1054600081E09AE7809368089093690881E08093CF
:10547000FB2026E020933920E091FC20F091FD20D4
:105480008091FE209091FF20A0910021B0910121F8
:1054900080839183A283B38303C081E08093FA2049
:1054A000FF91EF91BF91AF919F918F912F910F90AD
:1054B0000BBE0F9009BE0F9008BE0F900FBE0F904D
:1054C0001F90189582E08093FA20EACF8093FE2007
:1054D00083E08093FA20E4CF8093FF2084E08093E0
:1054E000FA20DECF8093002185E08093FA20D8CF88
:1054F0001092F9202091392089EF99E7821B9109B8
:10550000809360089093610881E09AE7809368082F
:105510009093690881E08093FB20222309F4ACCFAB
:105520002150A8CF992319F0913009F0B9CF1092EA
:10553000FA20B6CFAA1BBB1B51E107C0AA1FBB1F95
:10554000A617B70710F0A61BB70B881F991F5A950F
:10555000A9F780959095BC01CD010895A29FB00157
:10556000B39FC001A39F700D811D1124911DB29F97
:10557000700D811D1124911D0895FB01DC0102C0F5
:1055800001900D9241505040D8F70895F894FFCF04
:1055900076027C028202880291029B02A502A60288
:1055A000A702A802A4029A020E210F2110211421A1
:1055B000162118210100010004000100010016005D
:1055C000010101020282B4000107506C756D610097
:1055D0000F10100F100F1010A720A920AA20AB2029
:1055E000AC20AD20AE20AF20B020B420B620B72034
:1055F000B820D120D32001000100010001000100EA
:10560000010001000100010001000100010019007A
:105610000100010002010101010101010402010177
:045620000102010082
:00000001FF
