:100000000C94FE000C941B010C940D0F0C94250F06
:100010000C941B010C941B010C941B010C941B01F0
:100020000C941B010C941B010C941B010C941B01E0
:100030000C941B010C941B010C941B010C941B01D0
:100040000C941B010C941B010C941B010C941B01C0
:100050000C94A1140C941B010C945F170C941B01BD
:100060000C941B010C945D1B0C941B010C941B0144
:100070000C941B010C941B010C941B010C941B0190
:100080000C941B010C941B010C941B010C941B0180
:100090000C941B010C941B010C941B010C941B0170
:1000A0000C941B010C941B010C941B010C94CF1994
:1000B0000C941B010C941B010C941B010C941B0150
:1000C0000C941B010C941B010C941B010C941B0140
:1000D0000C941B010C941B010C941B010C941B0130
:1000E0000C941B010C941B010C949B1A0C94821908
:1000F0000C941B010C941B010C941B010C941B0110
:100100000C941B010C941B010C941B010C941B01FF
:100110000C941B010C941B010C941B010C941B01EF
:100120000C941B010C941B010C941B010C941B01DF
:100130000C941B010C941B010C941B010C941B01CF
:100140000C941B010C941B010C941B010C941B01BF
:100150000C941B010C941B010C941B010C941B01AF
:100160000C941B010C941B010C941B010C941B019F
:100170000C941B010C941B010C941B010C941B018F
:100180000C941B010C941B010C941B010C941B017F
:100190000C941B010C941B010C941B010C941B016F
:1001A0000C941B010C941B010C941B010C941B015F
:1001B0000C941B010C941B010C941B010C941B014F
:1001C0000C941B010C941B010C941B010C941B013F
:1001D0000C941B010C941B010C941B010C941B012F
:1001E0000C941B010C941B010C941B010C941B011F
:1001F0000C941B010C941B010C941B0111241FBEB9
:10020000CFEFCDBFDFE2DEBF10E2A0E0B0E2EEE371
:10021000F8E302C005900D92A23BB107D9F72BE29B
:10022000A2EBB0E201C01D92A136B207E1F70E9435
:100230003D0F0C941D1C0C9400008F92AF92BF9246
:10024000CF92DF92EF920F9385E590E29F938F9389
:100250000F2EF9E08F2EF02D0F2EFEE0AF2EB12CD9
:10026000F02D0F2EFEE2CF2EF1E2DF2EF02DE12C4D
:1002700003E020E041E060E08EE398E00E940A1392
:100280000F900F900F91EF90DF90CF90BF90AF90B5
:100290008F90089508950E94F40280E20E94A110B8
:1002A0000E94970E08950895089508950895089559
:1002B00008950895089508951092B3201092B420DF
:1002C00008950895CF93DF9384E0809366060E949B
:1002D000AC1580912E2183FF28C04091B32050910E
:1002E000B4209A01ADECBCEC0E94051C929582955D
:1002F0008F7089279F70892764E1689F9001699FAB
:10030000300D11244217530781F484E08093650671
:100310008091B2208093382160E085E20E94FA1536
:100320008091B2208F5F8093B22080912E2180FF38
:100330005BC08091B3209091B4208F3D23E0920761
:1003400019F08B3E914021F48CE391E20E94DB0E88
:100350008091B3209091B420853F21E0920719F05D
:10036000019709F041C066E271E28CE391E20E94DC
:10037000E80E811139C0E6E2F1E2208130E0322F4F
:1003800022278181282BADECBCEC0E94051CEC01DE
:10039000D695C795D695C795D695C795C093232171
:1003A000D0932421428140932C21238130E0322FAD
:1003B00022278481282B0E94051C96958795969567
:1003C00087959695879580932121909322219581F9
:1003D00090932D21EEE2F1E28283C38344839583DF
:1003E00060E082E20E94FA1580912E2181FF23C0F5
:1003F0004091B3205091B4209A01ADECBCEC0E9426
:10040000051C929582958F7089279F70892764E1DA
:10041000689F9001699F300D11244217530759F4CA
:1004200085E00E94BC10809334219093352160E0D8
:1004300083E20E94FA1580912E2182FF28C040910C
:10044000B3205091B4209A0136952795A3E1B3E8E3
:100450000E94051C0024880F991F001C880F991FFB
:10046000001C892F902D6AEF689F9001699F300DC5
:1004700011244217530759F487E00E94BC1080935F
:1004800036219093372160E084E20E94FA15809132
:10049000B3209091B42001968093B3209093B42020
:1004A000DF91CF91089508950895089508950895CE
:1004B000089590EE980F993098F490E08097FC01A1
:1004C000E85BFF4D208126130DC0880F991FFC01AA
:1004D000EE5EFF4D0190F081E02D099581E00895D9
:1004E00080E0089580E0089590EE980F9930E8F448
:1004F000E82FF0E0B097DF01A85BBF4D9C91961309
:1005000016C0DF01AA0FBB1FAA5CBF4D8D919C9145
:100510008217930771F4CA01EE0FFF1FE050F04EEF
:100520000190F081E02D0995089580E0089580E024
:10053000089580E008950895FC01808180932E2124
:1005400081E008950895FC01808180932F2181E04E
:1005500008950895FC0180818093302181E0089501
:100560000895FC01808191818093342190933521FD
:1005700081E008950895FC01808191818093362166
:100580009093372181E008950895FC018081809344
:10059000382181E008950895FC01808180933921FC
:1005A00081E008950895FC01808180FF03C094E0FC
:1005B0009093250681FF03C098E0909325068093D1
:1005C0003A2181E008950895FC01808180FF03C0F5
:1005D00094E09093260681FF03C098E0909326064E
:1005E00080933B2181E008950F9323E048E161E08F
:1005F00080E096E00E940F1023E040E162E080E09E
:1006000096E00E940F1023E040E063E080E096E077
:100610000E940F1023E040E064E080E096E00E943A
:100620000F1020E048E160E080E296E00E940F10A9
:1006300020E048E161E080E296E00E940F1023E0B4
:1006400040E163E080E696E00E940F1023E040E185
:1006500064E080E696E00E940F1020E040E166E052
:1006600080E696E00E940F1021E040E062E080E624
:1006700096E00E940F1021E040E062E080E296E008
:100680000E940F1021E040E063E080E296E00E94CB
:100690000F1020E040E164E080E496E00E94FA0F51
:1006A00020E040E165E080E496E00E94FA0F00E07F
:1006B00020E140E061E080E496E00E94271020E223
:1006C00041E061E080E496E00E94271021E040E0F4
:1006D00066E080E096E00E940F1021E040E067E0D5
:1006E00080E096E00E940F1021E040E062E080E4AC
:1006F00096E00E940F1021E040E063E080E496E085
:100700000E940F1021E040E067E080E696E00E9442
:100710000F10E0E6F6E080E1858380E48093060632
:10072000A0E4B6E084E015968C93159798E01596B2
:100730009C9386830F91089580E28A95F1F780E279
:100740008A95F1F7E0E4F6E081E0868385E18A9519
:10075000F1F7000085E18A95F1F7000082E08683D9
:1007600085E18A95F1F7000000000000000000001C
:100770000000000000000000000000000000000079
:10078000000000000000000085E18A95F1F70000FC
:100790000000000000000000000000000000000059
:1007A0000000000000000000000000000000000049
:1007B0000895E0E4F6E083E0868385E18A95F1F729
:1007C0000000000000000000000000000000000029
:1007D0000000000000000000000000000000000019
:1007E000000082E08583E8E4F6E0808181FFFDCFB0
:1007F00085E18A95F1F7000000000000000000008C
:1008000000000000000000000000000000000000E8
:10081000000000000000000085E18A95F1F700006B
:1008200000000000000000000000000000000000C8
:1008300000000000000000000000000000000000B8
:10084000E0E4F6E082E0858385E18A95F1F7000037
:1008500085E18A95F1F7000081E08583089521E024
:1008600048E260E080E496E00E940F1021E048E258
:1008700061E080E496E00E940F10E0E4F6E082E0A0
:1008800086839AE69A95F1F700C091E095839AE6FF
:100890009A95F1F700C0878395E19A95F1F70000EA
:1008A0000000000000000000000000000000000048
:1008B0000000000000000000000000000000000038
:1008C000878395E19A95F1F7000000000000000091
:1008D0000000000000000000000000000000000018
:1008E00000000000000000000000878395E19A9559
:1008F000F1F7000000000000000000000000000010
:1009000000000000000000000000000000000000E7
:1009100000000000878395E19A95F1F70000000040
:1009200000000000000000000000000000000000C7
:1009300000000000000000000000000000008783AD
:1009400095E19A95F1F7000000000000000000001A
:100950000000000000000000000000000000000097
:100960000000000000000000878395E19A95F1F7F0
:100970000000000000000000000000000000000077
:100980000000000000000000000000000000000067
:100990000000878395E19A95F1F7000000000000C0
:1009A0000000000000000000000000000000000047
:1009B000000000000000000000000000878395E1B7
:1009C0009A95F1F700000000000000000000000010
:1009D0000000000000000000000000000000000017
:1009E000000000000000878395E19A95F1F7000070
:1009F00000000000000000000000000000000000F7
:100A000000000000000000000000000000000000E6
:100A1000878395E19A95F1F700000000000000003F
:100A200000000000000000000000000000000000C6
:100A300000000000000000000000878395E19A9507
:100A4000F1F70000000000000000000000000000BE
:100A50000000000000000000000000000000000096
:100A600000000000878395E19A95F1F700000000EF
:100A70000000000000000000000000000000000076
:100A8000000000000000000000000000000087835C
:100A900095E19A95F1F700000000000000000000C9
:100AA0000000000000000000000000000000000046
:100AB0000000000000000000878395E19A95F1F79F
:100AC0000000000000000000000000000000000026
:100AD0000000000000000000000000000000000016
:100AE0000000878395E19A95F1F70000000000006F
:100AF00000000000000000000000000000000000F6
:100B0000000000000000000000000000878395E165
:100B10009A95F1F7000000000000000000000000BE
:100B200000000000000000000000000000000000C5
:100B3000000000000000878395E19A95F1F700001E
:100B400000000000000000000000000000000000A5
:100B50000000000000000000000000000000000095
:100B6000878395E19A95F1F70000000000000000EE
:100B70000000000000000000000000000000000075
:100B800000000000000000000000878395E19A95B6
:100B9000F1F700000000000000000000000000006D
:100BA0000000000000000000000000000000000045
:100BB00000000000878395E19A95F1F7000000009E
:100BC0000000000000000000000000000000000025
:100BD000000000000000000000000000000087830B
:100BE00095E19A95F1F70000000000000000000078
:100BF00000000000000000000000000000000000F5
:100C00000000000000000000878395E19A95F1F74D
:100C100000000000000000000000000000000000D4
:100C200000000000000000000000000000000000C4
:100C30000000878395E19A95F1F70000000000001D
:100C400000000000000000000000000000000000A4
:100C5000000000000000000000000000878395E114
:100C60009A95F1F70000000000000000000000006D
:100C70000000000000000000000000000000000074
:100C8000000000000000878395E19A95F1F70000CD
:100C90000000000000000000000000000000000054
:100CA0000000000000000000000000000000000044
:100CB000878395E19A95F1F700000000000000009D
:100CC0000000000000000000000000000000000024
:100CD00000000000000000000000878395E19A9565
:100CE000F1F700000000000000000000000000001C
:100CF00000000000000000000000000000000000F4
:100D000000000000878395E19A95F1F7000000004C
:100D100000000000000000000000000000000000D3
:100D200000000000000000000000000000008783B9
:100D300095E19A95F1F70000000000000000000026
:100D400000000000000000000000000000000000A3
:100D50000000000000000000878395E19A95F1F7FC
:100D60000000000000000000000000000000000083
:100D70000000000000000000000000000000000073
:100D80000000878395E19A95F1F7000000000000CC
:100D90000000000000000000000000000000000053
:100DA000000000000000000000000000878385E1D3
:100DB0008A95F1F70000000000000000000000002C
:100DC0000000000000000000000000000000000023
:100DD0000000000000000E94D9030895AF92BF9266
:100DE000DF92EF92FF920F931F93CF93DF936132C5
:100DF00008F0ABC3D62E8C010E949C03E8019881B9
:100E000082E080934606892F880F96FF04C091E008
:100E10009093450603C091E090934606D5E1DA959C
:100E2000F1F70000000000000000000000000000DA
:100E300000000000000000000000000000000000B2
:100E400000000000E0E4F6E092E0958325E12A95B9
:100E5000F1F70000000000000000000000000000AA
:100E60000000000000000000000000000000000082
:100E700000000000968386FF04C091E09093450631
:100E800003C091E09093460635E13A95F1F70000F2
:100E90000000000000000000000000000000000052
:100EA0000000000000000000000000000000000042
:100EB000E0E4F6E092E09583C5E1CA95F1F7000021
:100EC0000000000000000000000000000000000022
:100ED0000000000000000000000000000000000012
:100EE000968385FF04C091E09093450603C091E08E
:100EF00090934606D5E1DA95F1F700000000000076
:100F000000000000000000000000000000000000E1
:100F1000000000000000000000000000E0E4F6E037
:100F200092E0958325E12A95F1F70000000000008A
:100F300000000000000000000000000000000000B1
:100F4000000000000000000000000000968384FF05
:100F500004C091E09093450603C091E0909346064B
:100F600035E13A95F1F700000000000000000000B4
:100F70000000000000000000000000000000000071
:100F80000000000000000000E0E4F6E092E095833D
:100F9000C5E1CA95F1F70000000000000000000064
:100FA0000000000000000000000000000000000041
:100FB0000000000000000000968383FF04C091E061
:100FC0009093450603C091E090934606D5E1DA95EB
:100FD000F1F7000000000000000000000000000029
:100FE0000000000000000000000000000000000001
:100FF00000000000E0E4F6E092E0958325E12A9508
:10100000F1F70000000000000000000000000000F8
:1010100000000000000000000000000000000000D0
:1010200000000000968382FF04C091E09093450683
:1010300003C091E09093460635E13A95F1F7000040
:1010400000000000000000000000000000000000A0
:101050000000000000000000000000000000000090
:10106000E0E4F6E092E09583C5E1CA95F1F700006F
:101070000000000000000000000000000000000070
:101080000000000000000000000000000000000060
:10109000968381FF04C081E08093450603C081E010
:1010A00080934606D5E1DA95F1F7000000000000D4
:1010B0000000000000000000000000000000000030
:1010C000000000000000000000000000E0E4F6E086
:1010D00082E0858325E12A95F1F7000000000000F9
:1010E0000000000000000000000000000000000000
:1010F000000000000000000000000000868391E076
:10110000958335E13A95F1F70000000000000000FA
:1011100000000000000000000000000000000000CF
:10112000000000000000000000008583C5E1CA95B2
:10113000F1F70000000000000000000000000000C7
:10114000000000000000000000000000000000009F
:101150000000000086839583D5E1DA95F1F7000061
:10116000000000000000000000000000000000007F
:10117000000000000000000000000000000000006F
:101180008583E5E1EA95F1F700000000000000002A
:10119000000000000000000000000000000000004F
:1011A000000000000000000000008091480680FD63
:1011B00003C0D11005C0C5C10E94D90380E0C6C1DB
:1011C0005801F3E0AF0EB11CEE24EA94ED0CF12CC3
:1011D0002FEFE21AF20A40E050E0E0E4F6E081E0AE
:1011E00092E0A8E4B6E06D2D70E06150710985834E
:1011F000968335E13A95F1F7000000000000000009
:1012000000000000000000000000000000000000DE
:10121000000000000000000000009583C5E1CA95B1
:10122000F1F70000000000000000000000000000D6
:1012300000000000000000000000000000000000AE
:10124000000000002C9120FF02C020E801C020E037
:101250009683D5E1DA95F1F7000000000000000068
:10126000000000000000000000000000000000007E
:1012700000000000000000000000958335E13A9571
:10128000F1F7000000000000000000000000000076
:10129000000000000000000000000000000000004E
:1012A000000000003C9130FD20649683C5E1CA95A2
:1012B000F1F7000000000000000000000000000046
:1012C000000000000000000000000000000000001E
:1012D000000000009583D5E1DA95F1F700000000E9
:1012E00000000000000000000000000000000000FE
:1012F00000000000000000000000000000003C9121
:1013000030FD2062968335E13A95F1F70000000048
:1013100000000000000000000000000000000000CD
:1013200000000000000000000000000000009583A5
:10133000C5E1CA95F1F700000000000000000000C0
:10134000000000000000000000000000000000009D
:1013500000000000000000003C9130FD20619683F9
:10136000D5E1DA95F1F70000000000000000000070
:10137000000000000000000000000000000000006D
:101380000000000000000000958335E13A95F1F778
:10139000000000000000000000000000000000004D
:1013A000000000000000000000000000000000003D
:1013B00000003C9130FD28609683C5E1CA95F1F7A5
:1013C000000000000000000000000000000000001D
:1013D000000000000000000000000000000000000D
:1013E00000009583D5E1DA95F1F7000000000000D8
:1013F00000000000000000000000000000000000ED
:101400000000000000000000000000003C9130FDE2
:101410002460968335E13A95F1F700000000000062
:1014200000000000000000000000000000000000BC
:101430000000000000000000000000009583C5E1EE
:10144000CA95F1F700000000000000000000000055
:10145000000000000000000000000000000000008C
:101460000000000000003C9130FD22609683D5E131
:10147000DA95F1F700000000000000000000000015
:10148000000000000000000000000000000000005C
:10149000000000000000958335E13A95F1F7000067
:1014A000000000000000000000000000000000003C
:1014B000000000000000000000000000000000002C
:1014C0003C9130FD216096836417750711F4858384
:1014D00001C08683C5E1CA95F1F700000000000055
:1014E00000000000000000000000000000000000FC
:1014F0000000000000000000000000009583D5E11E
:10150000DA95F1F700000000000000000000000084
:1015100000000000000000000000000000000000CB
:101520000000000000009683E50129935E0141114F
:1015300002C0E8012A834F5F5F4F4E155F0509F037
:1015400056CE0E94D90381E001C080E0DF91CF91A7
:101550001F910F91FF90EF90DF90BF90AF90089593
:10156000EF92FF920F931F93CF93DF937C01062F8F
:101570000E949C03D7019C9182E080934606892FAC
:10158000880F96FF04C091E09093450603C091E058
:1015900090934606B5E1BA95F1F70000000000000F
:1015A000000000000000000000000000000000003B
:1015B000000000000000000000000000E0E4F6E091
:1015C00092E0958325E12A95F1F7000000000000E4
:1015D000000000000000000000000000000000000B
:1015E000000000000000000000000000968386FF5D
:1015F00004C091E09093450603C091E090934606A5
:1016000095E19A95F1F7000000000000000000004D
:1016100000000000000000000000000000000000CA
:101620000000000000000000E0E4F6E092E0958396
:10163000A5E1AA95F1F700000000000000000000FD
:10164000000000000000000000000000000000009A
:101650000000000000000000968385FF04C091E0B8
:101660009093450603C091E090934606B5E1BA9584
:10167000F1F7000000000000000000000000000082
:10168000000000000000000000000000000000005A
:1016900000000000E0E4F6E092E0958325E12A9561
:1016A000F1F7000000000000000000000000000052
:1016B000000000000000000000000000000000002A
:1016C00000000000968384FF04C091E090934506DB
:1016D00003C091E09093460695E19A95F1F70000DA
:1016E00000000000000000000000000000000000FA
:1016F00000000000000000000000000000000000EA
:10170000E0E4F6E092E09583A5E1AA95F1F7000008
:1017100000000000000000000000000000000000C9
:1017200000000000000000000000000000000000B9
:10173000968383FF04C091E09093450603C091E037
:1017400090934606B5E1BA95F1F70000000000005D
:101750000000000000000000000000000000000089
:10176000000000000000000000000000E0E4F6E0DF
:1017700092E0958325E12A95F1F700000000000032
:101780000000000000000000000000000000000059
:10179000000000000000000000000000968382FFAF
:1017A00004C091E09093450603C091E090934606F3
:1017B00095E19A95F1F7000000000000000000009C
:1017C0000000000000000000000000000000000019
:1017D0000000000000000000E0E4F6E092E09583E5
:1017E000A5E1AA95F1F7000000000000000000004C
:1017F00000000000000000000000000000000000E9
:101800000000000000000000968381FF04C081E01A
:101810008093450603C081E080934606B5E1BA9502
:10182000F1F70000000000000000000000000000D0
:1018300000000000000000000000000000000000A8
:1018400000000000E0E4F6E082E0858325E12A95CF
:10185000F1F70000000000000000000000000000A0
:101860000000000000000000000000000000000078
:1018700000000000868391E09683A5E1AA95F1F728
:101880000000000000000000000000000000000058
:101890000000000000000000000000000000000048
:1018A00000008583B5E1BA95F1F700000000000063
:1018B0000000000000000000000000000000000028
:1018C00000000000000000000000000086839583F7
:1018D00025E12A95F1F7000000000000000000005B
:1018E00000000000000000000000000000000000F8
:1018F0000000000000000000858385E18A95F1F773
:1019000000000000000000000000000000000000D7
:1019100000000000000000000000000000000000C7
:10192000000080914806182F117080FD03C001113E
:1019300005C0CBC10E94D90310E0CAC1E7012396BC
:101940000150402F50E04C5F5F4F4E0D5F1DE0E4B3
:10195000F6E092E021E068E476E09683DE0188819B
:10196000882314F4258301C0268385E18A95F1F745
:101970000000000000000000000000000000000067
:101980000000000000000000000000000000000057
:101990000000958385E18A95F1F7000000000000C2
:1019A0000000000000000000000000000000000037
:1019B00000000000000000000000000096838C91F1
:1019C00086FF02C0258301C0268385E18A95F1F751
:1019D0000000000000000000000000000000000007
:1019E00000000000000000000000000000000000F7
:1019F0000000958385E18A95F1F700000000000062
:101A000000000000000000000000000000000000D6
:101A100000000000000000000000000096838C9190
:101A200085FF02C0258301C0268385E18A95F1F7F1
:101A300000000000000000000000000000000000A6
:101A40000000000000000000000000000000000096
:101A50000000958385E18A95F1F700000000000001
:101A60000000000000000000000000000000000076
:101A700000000000000000000000000096838C9130
:101A800084FF02C0258301C0268385E18A95F1F792
:101A90000000000000000000000000000000000046
:101AA0000000000000000000000000000000000036
:101AB0000000958385E18A95F1F7000000000000A1
:101AC0000000000000000000000000000000000016
:101AD00000000000000000000000000096833C9120
:101AE00033FF02C0258301C0268385E18A95F1F783
:101AF00000000000000000000000000000000000E6
:101B000000000000000000000000000000000000D5
:101B10000000958385E18A95F1F700000000000040
:101B200000000000000000000000000000000000B5
:101B300000000000000000000000000096833C91BF
:101B400032FF02C0258301C0268385E18A95F1F723
:101B50000000000000000000000000000000000085
:101B60000000000000000000000000000000000075
:101B70000000958385E18A95F1F7000000000000E0
:101B80000000000000000000000000000000000055
:101B900000000000000000000000000096833C915F
:101BA00031FF02C0258301C0268385E18A95F1F7C4
:101BB0000000000000000000000000000000000025
:101BC0000000000000000000000000000000000015
:101BD0000000958385E18A95F1F700000000000080
:101BE00000000000000000000000000000000000F5
:101BF0000000000000000000000000009683219615
:101C00003C9130FF02C0258301C02683A5E1AA953F
:101C1000F1F70000000000000000000000000000DC
:101C200000000000000000000000000000000000B4
:101C3000000000009583B5E1BA95F1F700000000BF
:101C40000000000000000000000000000000000094
:101C5000000000000000000000000000000096836B
:101C6000258385E18A95F1F700000000000000005F
:101C70000000000000000000000000000000000064
:101C8000000000000000000000009583A5E1AA9577
:101C9000F1F700000000000000000000000000005C
:101CA0000000000000000000000000000000000034
:101CB00000000000DB013C9130FF03C00E94D9030B
:101CC00007C0C417D50709F048CE0E94D90311E018
:101CD000812FDF91CF911F910F91FF90EF90089589
:101CE0000F93CF93DF93EC016B834C832D8363E0E1
:101CF0000E94B00A8823A1F0002351F080E0EFE3B6
:101D0000FFE13197F1F700C000008F5F0813F7CFB4
:101D100061E0CE010E94EE06882321F08A8103C093
:101D200081E001C081E0DF91CF910F9108950F9381
:101D30000E942F048AE02FEF33EC99E021503040CD
:101D40009040E1F700C000008150A9F7ECE3F1E218
:101D500085E5808311828AE082830DE222E040E003
:101D600060E1CF010E94700E21E041E060E18CE370
:101D700091E20E94700E21E040E062E58CE391E286
:101D80000E94700E21E043E064E48CE391E20E9443
:101D9000700E21E042E062E58CE391E20E94700E59
:101DA0002FEF37EA81E6215030408040E1F700C054
:101DB00000000F91089522E1FC01238321E0248398
:101DC00062E00E94B00A91E0811190E0892F0895AD
:101DD0000F931F93CF93DF93EC01062F172F82E110
:101DE0008B8381E08C8367E0CE010E94EE0688231E
:101DF00071F0FE013496A02FB12F9E01265F3F4F58
:101E000081918D93E217F307D9F78B8101C081E0AF
:101E1000DF91CF911F910F9108958091480684FF23
:101E20000AC0EEE2F1E283858160838761E086E2A9
:101E30000E94FA1509C0EEE2F1E283858E7F838766
:101E400061E086E20E94FA1518958091480685FFA8
:101E50000AC0EEE2F1E283858260838761E086E278
:101E60000E94FA1509C0EEE2F1E283858D7F838737
:101E700061E086E20E94FA1518950E941D01E2EACF
:101E8000F0E08081876880837894FFCF222309F473
:101E90005BC030E23093520038E030935000309114
:101EA000510033FFFCCF611538E4730738EE830728
:101EB00031E0930709F482C0611534E2730734EF0F
:101EC0008307910509F47CC0611532E173073AE795
:101ED0008307910509F44BC0611539E073073DE3B1
:101EE0008307910509F46EC0603834E873073EE15A
:101EF0008307910509F460C0603432E473073FE062
:101F00008307910509F462C0603231EA730737E054
:101F10008307910509F458C0603930ED730733E049
:101F20008307910509F454C0683438EE730731E033
:101F30008307910509F44EC06432744F8105910501
:101F400009F04AC084E414C032E2309352003AE00F
:101F5000309350003091510031FFFCCF309151004F
:101F600033FDA1CF3091510033FFF8CF9CCF8CE0EF
:101F700098ED94BF222399F023E02093400094BF72
:101F800080934100442329F088ED84BF81E0809351
:101F9000420088ED84BF81E080938000089521E0B5
:101FA0002093400094BF8093410094BF82E08093CF
:101FB000560020936000E6CF8CE1DACF80E0D8CFE6
:101FC00084E0D6CF84E1D4CF8CE2D2CF84E2D0CFEC
:101FD00084E3CECF8CE3CCCF80E0089588ED84BF3E
:101FE00081E080938000089588ED84BF83E0809332
:101FF0008000FFCFFC01308181E090E0062E01C01F
:10200000880F0A94EAF78095832380837096E60F01
:10201000F11D8081422B807C482B40830895FC0178
:10202000308181E090E0062E01C0880F0A94EAF723
:10203000382B30837096E60FF11D8081807C842BD5
:102040008083211103C080818760808308950F936E
:10205000FC013185842F90E0880F991FA3E0B0E048
:10206000082E01C0AA0F0A94EAF7A095A323082E10
:1020700001C0660F0A94EAF7A62BA18741110FC091
:102080000023A9F02287248581E090E0042E01C07E
:10209000880F0A94EAF7282B24870F91089541307E
:1020A00091F7011108C08385822B8387ECCF82854D
:1020B000822B8287E8CF2387E6CFFC0110828CE059
:1020C00081874150510946A357A326836083089511
:1020D0002091CF0127FDFCCF8093C0019093C101D7
:1020E0001092C20186E08093CA0188ED84BF81E02E
:1020F0008093CB018091C40108952091CF0127FDE9
:10210000FCCF2091CF0121FF08C026E32093CA0114
:1021100028ED24BF21E02093CB0123E32093CA01C3
:102120008093C0019093C1011092C2016093C401D9
:1021300085E38093CA0188ED84BF81E08093CB0161
:102140000895E1E7F0E090819D7F908391E0909386
:102150000002E1E0F2E020E62083208120838093EA
:10216000020285E08093040290932002E2E2F2E012
:102170001082808180830895880F880F880F809354
:1021800021028091200280688093200280912302A6
:1021900080FFFCCF81E08093230280912402909104
:1021A00025029F702091512030915220821B930B69
:1021B0000895FF920F931F93CF93DF938C01C7E095
:1021C000D0E0F12C09C0F1100CC0CE010E947D10AE
:1021D0002196C032D10579F0F80161918F0161112A
:1021E000F2CF60E0CE010E947D10FF24F39421968F
:1021F000C032D10589F7DF91CF911F910F91FF90E8
:102200000895CF93962F10921A21803208F47FC040
:10221000282F30E020523109F901E85BFF4D508151
:10222000220F331FF901EA5CFF4DC081F901EC5D1B
:10223000FF4D208131812093BB203093BC209093AF
:102240005F21252F2F702C9FC02D1124EAE0EC0F69
:10225000E0936021809361212FEF209362215061F0
:102260005093632141116BC08091B7209091B820A9
:10227000A091B920B091BA208093642190936521F8
:10228000A0936621B09367212091B5203091B620AC
:1022900020936821309369218E2F90E08E3F910525
:1022A000A4F52091BB203091BC2040E0842F90E029
:1022B000F901E80FF91F5081FC01E659FE4D5083EA
:1022C0004F5F4C13F3CF209160212E5F30E02150FF
:1022D0003109121613060CF09FC080E090E040E038
:1022E00050E0FC01E15AFE4D8081580F4F5F842F72
:1022F00090E082179307ACF3F901E15AFE4D508349
:1023000080915320813009F46BC0CF9108958F30B4
:10231000E0F7282F30E0F901ED55FF4D5081220FF5
:10232000331FF901EB57FF4DC081F901E959FF4D0A
:10233000208131812093BB203093BC2080CF20911D
:102340004C084091CF205091D0206091D1207091C5
:10235000D22020FF21C04F5F5F4F6F4F7F4F4093D0
:1023600064215093652160936621709367212091C9
:10237000600830916108209368213093692188308A
:1023800009F08ACF933009F087CF1092682110921C
:102390006921E091602180CF4093642150936521B1
:1023A00060936621709367212091600830916108E5
:1023B0002093682130936921F091C020F03DF9F617
:1023C0002F303105E0F64F5F5F4F6F4F7F4F4093E7
:1023D0006421509365216093662170936721CFCF6C
:1023E00083E88093A200C091A30A9091A30A9C7FE6
:1023F0009093A30A609160216E5F8FE591E20E9445
:102400000F1A9091A30A8C2F8370892B8093A30AB3
:1024100087E88093A20079CF50E06ECFCF93E09110
:10242000622A2E2F30E024303105BCF090E020E00D
:1024300030E0F901EA59F54D4081F901E459F54DD3
:1024400040839F5F292F30E0E091622A4E2F50E0B9
:10245000435051092417350764F38093612AEA5FDA
:10246000E093622A8091652A80618093652A809139
:102470004C0880FF5FC08091CF209091D020A09128
:10248000D120B091D220AC01BD014F5F5F4F6F4FA3
:102490007F4F4093662A5093672A6093682A70930F
:1024A000692A209160083091610820936A2A30934C
:1024B0006B2A20911A212223B9F020914C0820FF89
:1024C00069C00196A11DB11D8093662A9093672A69
:1024D000A093682AB093692A80916008909161085E
:1024E00080936A2A90936B2AF0E0EE59F54D1082A2
:1024F0006091622A40E0262F30E080E090E0F90110
:10250000EE59F54DDC01AF59B54D20818C91280F66
:1025100020834F5F6091622A262F30E0842F90E065
:102520002817390764F780915320813009F457C088
:10253000CF9108958091CF209091D020A091D1206B
:10254000B091D2208093662A9093672AA093682A3C
:10255000B093692A209160083091610820936A2A1B
:1025600030936B2A4091C020403D09F0A2CF2F301C
:10257000310508F09ECFAC01BD014F5F5F4F6F4F3B
:102580007F4F4093662A5093672A6093682A70931E
:10259000692A8FCF8093662A9093672AA093682A2E
:1025A000B093692A209160083091610820936A2ACB
:1025B00030936B2A4091C020403D09F095CF2F30D9
:1025C000310508F091CF0196A11DB11D8093662AB7
:1025D0009093672AA093682AB093692A85CF83E8ED
:1025E0008093A200C091A30A9091A30A9C7F90932C
:1025F000A30A6E5F81E69AE20E940F1A9091A30AE5
:102600008C2F8370892B8093A30A87E88093A20084
:10261000CF9108953F924F925F926F927F928F92E7
:102620009F92AF92BF92CF92DF92EF92FF920F9361
:102630001F93CF93DF93CDB7DEB73C01962E142FB7
:10264000F22E4C885D880E94EE0F21E041E060E0B0
:1026500078E488EE91E00E94460F81E08093480084
:102660006092C6207092C7209092C8201093C92013
:10267000E092CA208093CB2089E08093CC20F09216
:10268000CD200093CE201092CF201092D020109217
:10269000D1201092D2201092D3201092D42082E028
:1026A00090E00E946810382E83E090E00E9468104D
:1026B000982E8FEF981609F4D9C0F31409F4A8C026
:1026C0006FED80E090E00E947D106F2D82E090E041
:1026D0000E947D1061E083E090E00E947D100E94E6
:1026E0004B0180E090E00E9468108E3E09F49CC08F
:1026F00080E68093D52080E48093D6200E94530109
:102700000E945401A092C420B092C520C092C22061
:10271000D092C3208092C12087E090E00E94681090
:102720008F3F09F4E1C007ED10E2F6EFEF2EFF2432
:10273000FA94C701865C90427C01C701800F911F0B
:102740000E946810F80181938F01F0E2003F1F079B
:10275000A1F789E1E7EDF0E2A4EFB0E201900D927C
:102760008A95E1F784E090E00E946810082F10E05D
:102770000093F0201093F12085E090E00E94681013
:10278000302F2227282B2093F0203093F12021E0B6
:1027900042E15AE767E080E498E00E945D10E09132
:1027A000C02081E08E0F8093C020F0E0E15AFF4D01
:1027B000808190E00197809368089093690811E008
:1027C0001093470820E040E060E080EE97E00E9430
:1027D0000F101093E50740E060E081E090E00E9478
:1027E00019190E9477198FEC90E2DF91CF911F9118
:1027F0000F91FF90EF90DF90CF90BF90AF909F90A0
:102800008F907F906F905F904F903F900C94321B11
:1028100091E0991255CF0E944B0180E090E00E9418
:1028200068108E3E09F064CF81E090E00E9468104D
:102830008093D520A114B10499F0760185010C0D87
:102840001D1DA0E26A2E712CC3010E946810F701C1
:1028500081937F01FFEF6F1A7F0AE016F106A1F75F
:1028600080E88093D6200E9454014CCF6F2D82E0E7
:1028700090E00E947D1061E083E090E00E947D1076
:1028800082E090E00E946810382E83E090E00E9481
:102890006810982E8201B7E06B2E712CE12C0CC0D1
:1028A000E1100FC0C3010E947D10FFEF6F1A7F0A75
:1028B00080E26816710491F0F80161918F01611155
:1028C000EFCF60E0C3010E947D10EE24E394FFEFA0
:1028D0006F1A7F0A80E26816710471F76FED80E06D
:1028E00090E00E947D10E9CE720107E010E0D12C4B
:1028F0000BC0D1100EC0C8010E947D100F5F1F4F8A
:102900000032110509F40FCFF70161917F016111C8
:10291000F0CF60E0C8010E947D10DD24D394EECF9B
:102920000E944A0121E080E092EEA4E0B0E001972D
:10293000A109B1090097A105B105C9F72093E707DF
:10294000F2CF8091CF209091D020A091D120B09152
:10295000D2200196A11DB11D8093CF209093D0204D
:10296000A093D120B093D220809118218F5F8093C3
:1029700018218EE090E0809368089093690881E0C8
:102980008093C0200E945A0180914C0880618093FE
:102990004C080E945C010E9462014091D52047FDD5
:1029A00003C0842F8370B4C0842F8370813009F0FA
:1029B000AFC010921A218FEC90E28093BB209093CD
:1029C000BC2083E080935F218EE08093602188E0CB
:1029D000809361218FEF8093622184E18093632152
:1029E00080914C0880FF18C08091CF209091D0201A
:1029F000A091D120B091D2200196A11DB11D80934C
:102A0000642190936521A0936621B0936721809102
:102A100060089091610826C08091CF209091D020CD
:102A2000A091D120B091D220809364219093652110
:102A3000A0936621B09367212091600830916108CE
:102A40005091C020503D71F42F30310558F401965B
:102A5000A11DB11D8093642190936521A0936621EF
:102A6000B093672110926821109269218091CF2044
:102A70009091D020A091D120B091D22080936A2152
:102A800090936B21A0936C21B0936D2120916021D4
:102A90002E5F30E0215031091216130684F450E005
:102AA00060E080E090E0FC01E15AFE4D8081680F1B
:102AB0005F5F852F90E082179307ACF301C060E061
:102AC000F901E15AFE4D608380915320813029F550
:102AD00083E88093A200C091A30A9091A30A9C7FEF
:102AE0009093A30A609160216E5F8FE591E20E944E
:102AF0000F1A9091A30A8C2F8370892B8093A30ABD
:102B000087E88093A2004091D520842F837000C075
:102B1000882339F0813019F400C092E003C091E0BD
:102B200001C094E08091CF20892321F081E080933F
:102B3000E60705C046FF03C081E08093E5070E94D9
:102B40005B0180914C0884FF06C08091BF208111F9
:102B500002C00E949014189510921A2180914C087E
:102B600080FF1CC08091CF209091D020A091D120D7
:102B7000B091D2200196A11DB11D8093B7209093F2
:102B8000B820A093B920B093BA20809160089091AA
:102B900061088093B5209093B62008958091CF204E
:102BA0009091D020A091D120B091D2208093B720D5
:102BB0009093B820A093B920B093BA2020916008D8
:102BC000309161082093B5203093B6204091C02009
:102BD000403D09F008952F303105E0F70196A11D21
:102BE000B11D8093B7209093B820A093B920B093E3
:102BF000BA2008959091D5209370913009F00895EE
:102C0000462F63E00C940111CF92DF92FF920F9355
:102C10001F93CF93DF9300D0CDB7DEB78F3040F452
:102C2000E82FF0E0DF01AD55BF4D9C91961759F0AC
:102C300080E00F900F90DF91CF911F910F91FF9047
:102C4000DF90CF900895EE0FFF1FEB57FF4D60818F
:102C500071816217730761F7883009F482C08A3086
:102C6000E9F18B3021F18C3009F4A4C08D3001F7EB
:102C7000FA0180819181019609F4C4C08091F3200A
:102C80008823B1F2FA01608185E090E049835A839C
:102C90000E947D1049815A81FA01618184E090E0AF
:102CA0000E947D1083E08093BF2081E0C2CFFA01B3
:102CB0008081813009F4BBC0823009F4A7C0843020
:102CC00009F4C8C0883089F76FEF87E090E00E9470
:102CD0007D1083E08093BF2081E0ABCFFA0180813B
:102CE00086FD04C081E08093E60780811091D520A5
:102CF000837F8093D520FA01808185FF41C015FF35
:102D000078C083FF10C081E08093102110920E21C3
:102D100080930F2110920D218091D520877F809381
:102D2000D520FA018081837079F4812F837009F4B2
:102D3000BCCF1092102149835A830E9457014981C8
:102D40005A81FA0180818370813029F1833009F042
:102D5000ACCF1370133009F4A8CF0E94590181E061
:102D600068CFFA0180819181A281B3818093CF20C5
:102D70009093D020A093D120B093D22081E059CF5E
:102D800015FFBFCF49835A830E94560149815A815A
:102D9000FA018081B6CF812F8370813009F485CF0D
:102DA00049835A830E94580149815A81FA018081DE
:102DB0008370CCCF8A0187E0C82ED12CF12C0DC0B6
:102DC000F11010C0C6010E947D10FFEFCF1ADF0A7C
:102DD00020E2C216D10409F465CFF80161918F0198
:102DE0006111EECF60E0C6010E947D10FF24F394D4
:102DF000ECCF49835A830E94550149815A81FA01D7
:102E000080817FCF81E08093F32013CF80E090E03A
:102E100049835A830E94681049815A818E3E09F085
:102E200007CF83E08093BF20FA01808148CF84EFF1
:102E300090E249835A830E94D9106FED80E090E0C0
:102E40000E947D1083E08093BF2049815A81FA015E
:102E5000808132CF6EEE80E090E049835A830E94F9
:102E60007D106091D52081E090E00E947D108091DE
:102E7000C4209091C52049815A81892BD1F000E06E
:102E800010E0E091C220F091C320E00FF11F6081BB
:102E9000C801809649835A830E947D100F5F1F4F9F
:102EA0008091C4209091C52049815A810817190743
:102EB00040F383E08093BF20FA01808103CF0E941A
:102EC0005A018091680890916908E091C02021E042
:102ED0002E0F2093C020E770F0E0E15AFF4D3081C3
:102EE000830F911D809368089093690820FD2FC17E
:102EF00080915320813071F482E08093850683E8CD
:102F00008093A2008091A30A8F7C8093A30A87E814
:102F10008093A20080911721811103C08091162116
:102F20000FC0815080931721882319F080911621BA
:102F300007C0109217211092162110921121A5C0DE
:102F4000882309F4A2C0A0915F22B09160228091F1
:102F5000622A8F3F59F01091632A5091642A0091A0
:102F6000652A36E6E32E3AE2F32E0AC01091652A6E
:102F70005091662A0091672A28E6E22E2AE2F22E74
:102F8000FD01319681F090E040E020E030E0E90181
:102F9000CF59D54D2881420F9F5F292F30E02E1742
:102FA0003F07A8F301C040E0EF59F54D9081491368
:102FB0006AC05F3F09F067C09091612A9130A9F51E
:102FC0001D31B0F41F3008F028C1E12FF0E0ED55BD
:102FD000FF4D9081091321C1193009F019C1809169
:102FE0006008909161088093D3209093D42010C101
:102FF000602F812F0E9459029091D52094FD43C0EB
:10300000811103C08091622A06C041E061E0812FF6
:103010000E94011138C010921A2190E0883F91055A
:1030200094F589E00E940E122EC0CD010497202F46
:103030002F70622F70E00E94F11B1D3138F49B014C
:10304000A701602F812F0E94041606C09B01A701D3
:10305000602F812F0E9474029091D52094FD13C09F
:10306000882331F041E062E0812F0E9401110BC002
:1030700010921A218091622A90E0883F91051CF4F9
:103080008AE00E940E121092162180915320813006
:1030900009F05AC08091880680FF44C08091BD200D
:1030A0009091BE200196883B2BE0920729F08093F7
:1030B000BD209093BE203AC01092BD201092BE2039
:1030C0008091D520982F93709130D9F486FF9093FA
:1030D000E607982F907F9093D52083FF0BC0109226
:1030E0000E2181E080930F2110920D21892F877F7F
:1030F0008093D520109210210E9457019091532067
:1031000001C091E010921421109215211092122109
:10311000109213218091A30A8C7F8093A30A91308F
:1031200029F012C01092BD201092BE2083E8809337
:10313000A2008091A30A80638093A30A87E880930A
:10314000A20082E0809386060E94610102C00E9474
:1031500062018091BF20882339F081508093BF2085
:10316000811102C00E94F40F80910F218823E1F0A9
:103170008091C02083708230B9F480910D218F300E
:1031800060F4893009F04EC02091600830916108E8
:103190002093D3203093D42045C08F5F80930D219E
:1031A0008C3111F410920F2180911021882311F19C
:1031B0008091C0208370F1F480910E21E82FF0E01F
:1031C000E85BFF4D6081805E0E945902882339F0E0
:1031D00080910E2141E061E0805E0E9401118091AA
:1031E0000E218F5F80930E219091C120891302C020
:1031F000109210210E945B0180914C0884FF06C050
:103200008091BF20811102C00E949014189511C0B6
:103210008091D52084FFF9CE36CF9091D52094FFB0
:10322000FACE31CF41E061E00E94011180910D2181
:10323000B4CFFF920F931F93CF93DF9300D0CDB7FE
:10324000DEB789839A83F62E142F20E040E061E0F8
:1032500080E896E00E940F1020E040E060E080E807
:1032600096E00E94FA0F01E021E040E063E080E890
:1032700096E00E94271082E08093860683E0809388
:10328000A50A89818093A60A8F2D90E18902B00159
:1032900011248A818F70862B8093A70A112329F02D
:1032A0008091A40A84608093A40A88E080938506B4
:1032B00020E040E063E080E896E00E940F1020E00C
:1032C00040E062E080E896E00E94FA0F8091880674
:1032D00080FF05C08091A30A8C7F8093A30A0F9082
:1032E0000F90DF91CF911F910F91FF900895E0EA29
:1032F000FAE084818861848380EE818383818063A6
:10330000838308951F920F920FB60F9211242F936B
:103310003F934F935F936F937F938F939F93AF935D
:10332000BF93EF93FF930E94550220911421309197
:103330001521C90101968093142190931521F9015B
:10334000EF59FD4D20812093A00A811528E09207B6
:10335000F9F020911221309113212817390729F40F
:103360008091A30A8C7F8093A30A0E945602FF914A
:10337000EF91BF91AF919F918F917F916F915F91ED
:103380004F913F912F910F900FBE0F901F90189566
:10339000109214211092152180E090E0DACF1F9254
:1033A0000F920FB60F9211242F933F934F935F9379
:1033B0006F937F938F939F93AF93BF93EF93FF93FD
:1033C0000E9457028091880680FD23C0209114211D
:1033D00030911521809112219091132128173907DE
:1033E00029F08091A30A83608093A30A0E94580267
:1033F000FF91EF91BF91AF919F918F917F916F91CD
:103400005F914F913F912F910F900FBE0F901F90A2
:1034100018958091A30A8C7F8093A30AE7CFBF926F
:10342000CF92DF92EF92FF920F931F93CF93DF9390
:103430006C01B62E8091880680FD05C08091A30A9C
:1034400083608093A30A0091122110911321C0E0A0
:10345000D8E0C01BD10BEB2CF12CCE15DF0560F1B1
:10346000A701B601C8018F599D4D0E94141C80917F
:10347000142190911521E00EF11EE0921221F0929C
:103480001321E11428E0F20609F448C008171907CF
:10349000B8F5E816F906A0F18FEFE81AF80AE092FD
:1034A0001421F0921521E11428E0F20649F510925A
:1034B00014211092152124C0AE01B601C8018F5904
:1034C0009D4D0E94141CBC1AEB2CF12CBE016C0DFE
:1034D0007D1DA70181E692E20E94141C80911421B7
:1034E00090911521E0921221F092132108171907EB
:1034F00088F42FEFE21AF20AE0921421F0921521DB
:10350000DF91CF911F910F91FF90EF90DF90CF90BF
:10351000BF900895E816F90660F7F2CF10921221D5
:1035200010921321892B61F781E090E080931421A0
:1035300090931521E5CF1F920F920FB60F92112491
:103540002F933F934F935F936F937F938F939F93AB
:10355000AF93BF93EF93FF930E9453029091A00A01
:10356000E091112181E08E0F80931121F0E0EF595D
:10357000F54D90838130E9F0843019F190E020918D
:103580005F22309160228217930749F10E94540212
:10359000FF91EF91BF91AF919F918F917F916F912B
:1035A0005F914F913F912F910F900FBE0F901F9001
:1035B00018958091612A81508230D0F110921121AA
:1035C000E5CF8091622A8F3F01F190E08E3F910517
:1035D000A9F3029680935F2290936022D7CF209127
:1035E0005320213061F12091622A2F3F29F122E0FE
:1035F00030E0821B930B80935F22909360221092A5
:10360000112181E080931621C1CF8091622A90918F
:10361000632A04968F3F910509F080F68091632A12
:103620009091642A049680935F2290936022AECF9B
:1036300082E380931721AACF24E030E0DACF82E042
:103640008093850683E88093A2008091A30A8F7CF3
:103650008093A30A87E88093A20080915F229091D3
:103660006022C1CFCF93DF9300D0CDB7DEB723E187
:1036700030E029833A8380931B2190931C2183E0BF
:103680008093A50889818093A6088A818F70809392
:10369000A70820E048E162E080E496E00E94FA0F8B
:1036A00080E18093A408E3EAF8E08081806380836E
:1036B0000F900F90DF91CF9108951F920F920FB648
:1036C0000F9211242F938F939F93AF93BF93EF93F8
:1036D000FF938091A0088A3AE9F18F3A09F449C032
:1036E00090911921923009F448C008F472C09430C6
:1036F00009F44FC008F447C0953079F58093202134
:1037000010921921809118218A3008F448C082EF64
:1037100099E7809360089093610881E09AE780932D
:1037200068089093690881E080931A2126E020932D
:103730005420E0911B21F0911C2180911D2190913A
:103740001E21A0911F21B091202180839183A2830B
:10375000B38303C081E080931921FF91EF91BF9162
:10376000AF919F918F912F910F900FBE0F901F904F
:10377000189582E080931921F0CF80931D2183E07A
:1037800080931921EACF80931E2184E08093192130
:10379000E4CF80931F2185E080931921DECF109222
:1037A00018212091542089EF99E7821B9109809379
:1037B00060089093610881E09AE78093680890938D
:1037C000690881E080931A21222309F4B2CF2150A5
:1037D000AECF992319F0913009F0BFCF1092192183
:1037E000BCCFAA1BBB1B51E107C0AA1FBB1FA6175A
:1037F000B70710F0A61BB70B881F991F5A95A9F79A
:1038000080959095BC01CD010895A29FB001B39F12
:10381000C001A39F700D811D1124911DB29F700DD9
:10382000811D1124911D0895FB01DC0102C001904E
:0E3830000D9241505040D8F70895F894FFCF04
:10383E009C02A302AA02B102BB02C502CC02D302B1
:10384E00E4029B02A202A902B002BA02C402CB0297
:10385E00D202E3022E212F213021342136213821AC
:10386E0039213A213B210100010004000100010031
:10387E00010001000100010001010102020101012C
:10388E0001B400010742696F526561646572000FF1
:10389E0010100F100F1010C620C820C920CA20CB40
:1038AE0020CC20CD20CE20CF20D320D520D620D77F
:1038BE0020F020F2200100010001000100010001B2
:1038CE0000010001000100010001000100190001CA
:1038DE0000010002010101010101010402010101C7
:0238EE000201D5
:00000001FF
